:1000000007C1000036C1000034C1000032C1000049
:1000100030C100002EC100002CC100002AC1000028
:1000200028C1000026C1000024C1000022C1000038
:1000300020C100001EC100001CC100001AC1000048
:1000400018C1000016C1000014C1000012C1000058
:1000500010C100000EC100000CC100000C949229D8
:1000600008C100000C94892D0C94BF2D02C1000022
:1000700000C10000FEC00000FCC00000FAC000008B
:10008000F8C00000F6C00000F4C00000F2C000009C
:100090000C94152E0C944B2EECC00000EAC000000E
:1000A000E8C00000E6C00000E4C00000E2C00000BC
:1000B000E0C00000DEC00000DCC00000DAC00000CC
:1000C000D8C00000D6C000000C94DE250C94A12EF0
:1000D0000C94D72ECEC000000C942D2F0C94632FBF
:1000E000C8C0000005A84CCDB2D44EB93836A9021C
:1000F0000C50B9918688083CA6AAAA2ABE00000026
:10010000803F00000A0B02090C0D0E0807030401D2
:1001100000000000000000000000000000000000DF
:1001200000000000000000000000000000001211AC
:1001300010000000000000000000000000000000AF
:10014000000000000000000001021020200808103C
:100150002040102040800201020108040201010237
:100160000408102040808040201008040201800410
:10017000020180402010080402010804020101026B
:10018000040810204080010204081020408005056A
:100190000505070508080808020202020A0A0808FD
:1001A000040404040101010101010101030303032B
:1001B00003030303040707070C0C0C0C0C0C0C0CBA
:1001C0000202020206060606060606060B0B0B0BCB
:1001D0000B0B0B0B00002200250028002B002E002B
:1001E0003100340002010000050108010B0100008C
:1001F0002100240027002A002D00300033000101D7
:100200000000040107010A01E82D742E002F8C2F35
:1002100011241FBECFEFD1E2DEBFCDBF00E00CBF87
:1002200012E0A0E0B2E0E6E9F0E600E00BBF02C0B9
:1002300007900D92A83EB107D9F728E0A8EEB2E0EA
:1002400001C01D92A43CB207E1F711E0C8E0D1E083
:1002500000E006C021970109802FFE010E9418309E
:10026000C430D10780E00807A9F70E94CB260C9480
:100270004930C6CECF93DF93882349F0EB018150FC
:100280000E94992A99838883DF91CF910895FB0179
:1002900011821082F9CF0F931F938B019C0183E091
:1002A00036952795179507958A95D1F70F501D4FCD
:1002B000462F477021E030E0F90102C0EE0FFF1F2A
:1002C0004A95E2F7AF01F80120812423CB01019682
:1002D000211102C090E080E01F910F9108950F93CB
:1002E0001F938B019C0183E0369527951795079501
:1002F0008A95D1F7677081E090E001C0880F6A9518
:10030000EAF7F801EF50FD4F2081452B31F480953D
:10031000822380831F910F910895822BFACFCF9271
:10032000DF92EF92FF92CF93DF936B017C0160E04D
:1003300086E3C816D104E104F10490F486E38C0D41
:100340000E94F62BE6012196AE01C701B601C7DF78
:10035000CE01DF91CF91FF90EF90DF90CF90089585
:100360008C2DEECF882341F08150682F70E090E013
:1003700080E050E040E0B3CF0895611102C00C94DA
:10038000F62B6130E1F362E0FACF662319F061E009
:100390000C94322C60E0FCCFCF92DF92EF92FF9270
:1003A000CF93882351F16A017B01CFEFC80F20E082
:1003B00030E0A901CB01B6010E94C12787FF11C01F
:1003C000C701B60190580E94CA279B01AC016C2F4F
:1003D00070E090E080E0CF91FF90EF90DF90CF90C1
:1003E000B2C0C701B6010E94C5278C2FCF91FF90E4
:1003F000EF90DF90CF900C94BC2ACF91FF90EF90BC
:10040000DF90CF9008950F931F938B019C0183E0A1
:1004100036952795179507958A95D1F708511D4F61
:10042000462F477021E030E0F90102C0EE0FFF1FB8
:100430004A95E2F7AF01F80120812423CB01019610
:10044000211102C090E080E01F910F9108950F9359
:100450001F938B019C0183E036952795179507958F
:100460008A95D1F7677081E090E001C0880F6A95A6
:10047000EAF7F801E851FD4F2081452B31F48095D2
:10048000822380831F910F910895822BFACF2F92A0
:100490003F924F925F926F927F928F929F92AF9214
:1004A000BF92CF92DF92EF92FF920F931F93CF9361
:1004B000DF93D62EC72E782E692E49015A012801C6
:1004C00061E08D2D0E94F62BCD2DDC2D8E010F5F6E
:1004D0001F4FA8016D2D7C2D872D962DB8DF20E0B4
:1004E00030E0A901C201B7010E94A828181664F4DF
:1004F000C201B7010E94CA272B01C501B4010E94A5
:10050000CA27A201CE0123D0C801DF91CF911F914C
:100510000F91FF90EF90DF90CF90BF90AF909F90A2
:100520008F907F906F905F904F903F902F900895A5
:10053000882341F08150682F70E090E080E050E027
:1005400040E085CF0895862FB9010C94BC2A9C0108
:10055000FC01EE5FFE4FE491E150E231E0F4F0E0A7
:100560008827EA54FD4F8F4F0C941830C802CF02F1
:10057000D202E902FE02CB0213031F0323033A0354
:100580004F0364037B039003CB02A503BC03D10399
:1005900084B5806884BD60E0822F0C94322C84B5D1
:1005A0008062F8CF809180008C7F82608093800091
:1005B00080918100807E8061682B609381005093E0
:1005C000870040938600809180008068809380003F
:1005D000E2CF809180008C7F826080938000809148
:1005E0008100807E8061682B60938100509387003A
:1005F00040938600809180008062E8CF80918000E7
:100600008C7F82608093800080918100807E8061F9
:10061000682B6093810050938700409386008091FF
:1006200080008860D3CF8091B00080688093B00054
:100630008091B100887F682B6093B100ACCF80912E
:10064000B0008062F3CF809190008C7F82608093B5
:10065000900080919100807E8061682B6093910072
:10066000509397004093960080919000806880930B
:10067000900091CF809190008C7F82608093900059
:1006800080919100807E8061682B609391005093EF
:10069000970040939600809190008062E8CF80910F
:1006A00090008C7F82608093900080919100807E8A
:1006B0008061682B6093910050939700409396005F
:1006C000809190008860D3CF8091A0008C7F826061
:1006D0008093A0008091A100807E8061682B609350
:1006E000A1005093A7004093A6008091A0008068CD
:1006F0008093A00050CF8091A0008C7F8260809377
:10070000A0008091A100807E8061682B6093A10091
:100710005093A7004093A6008091A0008062E8CF8C
:100720008091A0008C7F82608093A0008091A100C6
:10073000807E8061682B6093A1005093A700409356
:10074000A6008091A0008860D3CF809120018C7F8B
:1007500082608093200180912101807E8061682BDE
:10076000609321015093270140932601809120013D
:100770008068809320010FCF809120018C7F826060
:100780008093200180912101807E8061682B60939D
:10079000210150932701409326018091200180621E
:1007A000E8CF809120018C7F82608093200180912E
:1007B0002101807E8061682B609321015093270185
:1007C00040932601809120018860D3CF90E080E0A3
:1007D00008950F931F93009709F487C06115710561
:1007E00009F483C00091190210911A0220911B0292
:1007F00030911C020E3F1F4F2F4F3F4F09F066C034
:100800004FEF5FEFBA014093190250931A026093C1
:100810001B0270931C024091190250911A026091C0
:100820001B0270911C02DC011296ED91FC918081FB
:100830009181A281B3818093F4039093F503A093F7
:10084000F603B093F70384819581A681B7818093E5
:10085000F0039093F103A093F203B093F303808528
:100860009185A285B3858093EC039093ED03A093CB
:10087000EE03B093EF0384859585A685B7858093B5
:10088000E8039093E903A093EA03B093EB0310927B
:10089000E4031092E5031092E6031092E7037CD57F
:1008A00081EF99E09093FB028093FA029093FD020E
:1008B0008093FC0260D4009731F421E030E0309363
:1008C000F9032093F8031F910F91089500911902E5
:1008D00010911A0220911B0230911C02DB010D9332
:1008E0001D932D933C93139796CF8FEF9FEFEBCFF4
:1008F0008F929F92AF92BF92CF92DF92EF92FF9230
:100900001F93CF93DF934B015C011091FB0382E0B7
:1009100090E09093F9038093F80381149104A1046B
:10092000B10441F48091FB03811104C08091FA036A
:10093000C1E08111C0E0C12CD12C76018091FB0374
:10094000811106C08091FA03811102C0CC23D9F035
:1009500083E090E09093F9038093F803CC2379F13E
:10096000CCE9DFEF111102C00E94560DCE01DF91DC
:10097000CF911F91FF90EF90DF90CF90BF90AF90FD
:100980009F908F9008956AE070E080E090E00E9470
:10099000012A80E1C80E87E2D81EE11CF11C8FEF0E
:1009A00088169806A806B80631F0C1E08C149D049C
:1009B000AE04BF0408F0C0E080E011D4BFCFD0E0A7
:1009C000C0E0D0CFCF92DF92EF92FF920F931F93B0
:1009D000CF93DF938F3F910511F008F050C0209125
:1009E000F8033091F9032330310539F02091F803F1
:1009F0003091F9032130310531F424E030E03093B7
:100A0000F9032093F8036A017B01EC018230910520
:100A1000A0F011E0AE01C701B601ACD3AB01BC013F
:100A2000CE011123F9F0DF91CF911F910F91FF902B
:100A3000EF90DF90CF900C947F0F8C01000F111F6F
:100A400006501D4FD8018D919C91892B11F30E9466
:100A5000890F0297F1F6D801ED91FC91CE0119951D
:100A6000182FD8CF0E94A10F90E080E0DF91CF91A6
:100A70001F910F91FF90EF90DF90CF9008958FEF2F
:100A80009FEFF4CF80E0ABC3CF93DF9386E090E09D
:100A90009093F9038093F803FBD3EC01EAEFF2E0C3
:100AA00084E0DF011D928A95E9F798D71092F90347
:100AB0001092F803CE01DF91CF9108958091FA034F
:100AC00008958091E30308956093190270931A02C8
:100AD00080931B0290931C0290E080E00895CF92D7
:100AE000DF92EF92FF92CF93DF93C0900002D090FD
:100AF0000102E0900202F0900302A70196016091CA
:100B0000A7087091A8088091A9089091AA080E944E
:100B1000C127882341F0C092A708D092A808E0928C
:100B2000A908F092AA086AE370E080E090E0B3DBE5
:100B30009093A6088093A50843E050E06CE978E024
:100B400099DB61E08091C108811160E060939E08AB
:100B50008DE01BDCE091BD03F091BE0320910C02FF
:100B600030910D0240910E0250910F02608171810F
:100B7000828193810E94AC28209110023091110251
:100B800040911202509113020E945D270E940F298A
:100B90002091040230910502409106025091070213
:100BA0000E94AC28209108023091090240910A026B
:100BB00050910B020E945D276093980870939908EA
:100BC00080939A0890939B0862E070E080E090E048
:100BD0001ADCEC019093BA088093B9082091980828
:100BE0003091990840919A0850919B0860911402A5
:100BF0007091150280911602909117020E94AC2804
:100C00006B017C0120E030E04FE753E40E94C127F4
:100C100018160CF46EC020E030E0A901C701B6013F
:100C20000E94A82887FF03C0C12CD12C7601B701F0
:100C3000A601CE01B1DB80919E088093C10840914E
:100C4000AA035091AB036091AC037091AD0390E0A7
:100C500080E0B8DE4091B2035091B3036091B403D9
:100C60007091B50381E090E0ADDE6091AA037091D0
:100C7000AB038091AC039091AD036F5F7F4F8F4FBB
:100C80009F4F6093AA037093AB038093AC03909340
:100C9000AD03C091BD03D091BE030E94F6279B0116
:100CA000AC016091AE037091AF038091B00390915D
:100CB000B1030E94AC28688379838A839B838091E7
:100CC000B2039091B303A091B403B091B503019620
:100CD000A11DB11D8093B2039093B303A093B403FD
:100CE000B093B503DF91CF91FF90EF90DF90CF905D
:100CF0000895C12CD12C8FE7E82E83E4F82E97CFEE
:100D00008F929F92AF92BF92DF92EF92FF920F93DA
:100D10001F93CF93DF93E2E1F3E08AEB93E09783B5
:100D20008683CDEBD3E0D0935303C09352030EEAF6
:100D300013E0158B048BF0937D03E0937C03F58324
:100D4000E48321E030E0DC012D933C9383E492E0E6
:100D5000938782872FEB33E03983288340E050E08C
:100D600060EA71E44093B6035093B7036093B8030D
:100D70007093B9034DEC5CEC6CEC7DE3D8014D93C2
:100D80005D936D937C931397C8E9D3E085E99EE06A
:100D9000AFE7BBE588839983AA83BB8388EE9DEB8D
:100DA000ADE4BFE880939C0390939D03A0939E03C2
:100DB000B0939F0384E79BEAADE2BDEC8093A00370
:100DC0009093A103A093A203B093A30380EF9BE5AC
:100DD000A2E4BCEF8093A4039093A503A093A60381
:100DE000B093A703A6E0B3E0B383A283EEEFF2E0F3
:100DF0001196FC93EE9385E592E091838083938333
:100E00008283958384839783868388EA93E015960B
:100E10009C938E9314971396DC93CE931297179608
:100E20003C932E931697CFE9D8E0E0E0F2E0808D76
:100E30008AA3188280819181A281B3818887998752
:100E4000AA87BB87812C912C5401839489829A8232
:100E5000AB82BC826AE370E080E090E060DA9F835E
:100E60008E83DD24D394DD821C868D869E86AF869C
:100E7000B88A61E08DE081DAD98A1C8A8D8A9E8ADF
:100E8000AF8AB88EE12CF12C8701A801970162E0AE
:100E900070E080E090E0FBDA9B8F8A8FD98EDF9143
:100EA000CF911F910F91FF90EF90DF90BF90AF9087
:100EB0009F908F90089580919F0881111DC081E0BF
:100EC00080939F088091A0089091A108A091A2080A
:100ED000B091A3080197A105B10571F48091A40810
:100EE000882351F06AE370E080E090E0D4D99093D9
:100EF000A6088093A50836DA8091AB08811103C05B
:100F000081E08093AB088091B30881112AC081E011
:100F10008093B3088091B4089091B508A091B60869
:100F2000B091B7080197A105B105D9F48091B8082F
:100F30008823B9F062E070E080E090E064DA90939A
:100F4000BA088093B90840E050E0BA0125DA62E0BF
:100F500070E080E090E057DA9093BA088093B90887
:100F6000E7CA08954F925F926F927F928F929F92FD
:100F7000AF92BF92CF92DF92EF92FF920F931F93A7
:100F8000F8944090D3035090D4036090D5037090B0
:100F9000D603C090C703D090C803E090C903F09077
:100FA000CA034130510509F0A6C09B01AC012419C8
:100FB00035094609570929013A010091CF031091DB
:100FC000D0032091D1033091D20348015901840C00
:100FD000951CA61CB71C80169106A206B306A0F4A9
:100FE0000091CB031091CC032091CD033091CE031F
:100FF0000F5F1F4F2F4F3F4F0093CB031093CC0336
:101000002093CD033093CE038092CF039092D003F0
:10101000A092D103B092D2030091CB031091CC03E4
:101020002091CD033091CE038092D7039092D803C4
:10103000A092D903B092DA030093DB031093DC0390
:101040002093DD033093DE036093D3037093D403C6
:101050008093D5039093D603A301920160EA76E8CA
:1010600081E090E00E94E72F6C0D7D1D8E1D9F1D7D
:101070006093C7037093C8038093C9039093CA0316
:101080000091190210911A0220911B0230911C024A
:101090000F3F1F4F2F4F3F4FF1F00091190210915A
:1010A0001A0220911B0230911C020E3F1F4F2F4F3E
:1010B0003F4F89F0C0901902D0901A02E0901B02B5
:1010C000F0901C0221E08C149D04AE04BF0408F4CF
:1010D00020E02093E30378941F910F91FF90EF900D
:1010E000DF90CF90BF90AF909F908F907F906F9048
:1010F0005F904F9008954B015C0184189508A608F5
:10110000B708A3019201261B370B480B590B641536
:10111000750586059705E0F082169306A406B506C8
:1011200040F420E030E0A90181149104A104B1044D
:10113000A1F460EA76E881E090E00E94E72FA70141
:101140009601261B370B480B590BCA01B901C3CFB7
:1011500082169306A406B50660F7A501940160EA1D
:1011600076E881E090E00E94E72F6C0D7D1D8E1DDA
:101170009F1DB1CFF7CECF93DF9300D01F92CDB795
:10118000DEB71C821B821A8219821092DF03109232
:10119000E0031092E1031092E203BE016F5F7F4F04
:1011A000CE0103960E94AF2569817A818B819C8153
:1011B0000E949F1E009761F4BE016F5F7F4FCE01BA
:1011C00003960E94BB2569817A818B819C812FD5F2
:1011D0000F900F900F900F90DF91CF910895FF9295
:1011E0000F931F93CF93DF93082F60E070E0CB0144
:1011F0000E94012AFF24F3940E94881DEC01892B90
:1012000089F010E0CE3F8FEFD80769F0002361F13D
:1012100060E070E0CB010E94012A81E090E0892B20
:1012200059F322C011E026D5EC01892B21F0CE3FE5
:101230008FEFD80759F711111EC011E0229609F45B
:1012400010E00E94381DEC01892B21F0CE3F8FEF7A
:10125000D807E1F6111111C011E0CE3F8FEFD8078A
:1012600009F410E001110BC0CE01DF91CF911F9165
:101270000F91FF90089511E0E4CF11E0F3CF60E00B
:1012800070E0CB010E94012A1F25812F90E0C7CF7B
:10129000CF93DF938091E303882321F060E070E037
:1012A000CB014DD636D6D0E0C0E0892B71F06AE094
:1012B00070E080E090E00E94012A81E090DF29D672
:1012C0002196C03D27E0D20781F728D60E94F31E61
:1012D0001092FB031092FA031092F4031092F5039C
:1012E0001092F6031092F7031092F0031092F1039C
:1012F0001092F2031092F3031092EC031092ED039C
:101300001092EE031092EF031092E8031092E9039B
:101310001092EA031092EB031092E4031092E5039B
:101320001092E6031092E7034EEF5FEF6FEF7FEF4F
:101330004093190250931A0260931B0270931C028F
:101340001092E303E7EDF3E028E0DF011D922A9518
:10135000E9F71092D3031092D4031092D5031092A0
:10136000D6031092CF031092D0031092D1031092A3
:10137000D2031092CB031092CC031092CD031092A3
:10138000CE031092C7031092C8031092C9031092A3
:10139000CA03DF91CF9108951092070410920804B8
:1013A0001092090410920A041092060480910F040E
:1013B0009091100490930504809304041092030408
:1013C000109202041092FE031092FF031092000488
:1013D0001092010410920C0410920B0490E080E033
:1013E0000895CF92DF92EF92FF920F931F93CF93C6
:1013F0008C01019709F055C020910F043091100421
:10140000809104049091050440910F0450911004C0
:1014100050930504409304042817390781F0109273
:101420000304109202041092FE031092FF03109224
:1014300000041092010410920C0410920B0480918D
:101440000F0490911004019761F580910B04909125
:101450000C04892B21F480911D02811112C080910E
:101460000B0490910C040197E1F48091FE0390919C
:10147000FF03A0910004B09101040197A105B105FB
:1014800081F41092FE031092FF0310920004109258
:10149000010410921D0282E090E090930C0480936E
:1014A0000B0480910F0490911004019709F01CC166
:1014B00080912504909126048017910709F014C1AA
:1014C0008091210490912204A0912304B0912404DE
:1014D000009709F409C12091200421110DC0409109
:1014E0002104509122046091230470912404452B1F
:1014F000462B472B09F4F8C020910B0430910C04C3
:101500002230310509F0F0C0209102042111ECC015
:10151000FC01C080D180E280F380809106048823A2
:1015200009F4D3C08091120490911304892B09F41B
:10153000FEC0209112043091130481E02230310565
:1015400009F080E02091120430911304C1E02130B1
:10155000310549F02091120430911304C1E022308A
:10156000310509F0C0E0882309F456C020911C041D
:1015700030911D0440911E0450911F04C701B60113
:101580000E94A82887FD14C020911C0430911D04DE
:1015900040911E0450911F0460910704709108044B
:1015A0008091090490910A040E94C12787FD22C0FE
:1015B00020911C0430911D0440911E0450911F0481
:1015C000C701B6010E94A828181634F520911C0402
:1015D00030911D0440911E0450911F046091070436
:1015E000709108048091090490910A040E94C12717
:1015F000811112C08091140490911504A0911604D9
:10160000B0911704892B8A2B8B2B19F481E08093DE
:10161000030481E080930204CC2309F456C0209196
:101620001C0430911D0440911E0450911F04C701F9
:10163000B6010E94C12787FF14C020911C0430917D
:101640001D0440911E0450911F0460910704709185
:1016500008048091090490910A040E94A82887FF39
:1016600022C020911C0430911D0440911E04509111
:101670001F04C701B6010E94C127811126C0209115
:101680001C0430911D0440911E0450911F04609170
:101690000704709108048091090490910A040E9443
:1016A000A828181694F48091140490911504A09120
:1016B0001604B0911704892B8A2B8B2B19F481E027
:1016C0008093030481E08093020481E090910204FE
:1016D000911180E080930604C0920704D092080420
:1016E000E0920904F0920A040130110509F067C183
:1016F00080910B0490910C04892BD9F41092110461
:101700001092020480911D02882379F082E090E01B
:1017100090930C0480930B0410921D0220910F04EF
:101720003091100481E0232BE9F080E01BC081E0C0
:1017300009CF10921D0280911104882349F0109264
:10174000030410920C0410920B0410921104EDCFBC
:1017500080910F0490911004892BE1F08091020494
:101760001092020420910B0430910C0422303105B8
:1017700009F45EC088F42115310509F448C0213010
:10178000310509F4F3C01092030410920204109280
:10179000110438C081E0E6CF2330310509F4B1C02F
:1017A0002430310581F74091FE035091FF03609191
:1017B000000470910104411551056105710561F046
:1017C00041505109610971094093FE035093FF0391
:1017D00060930004709301044091FE035091FF0355
:1017E0006091000470910104452B462B472BD9F4DE
:1017F00020910D0430910E042130310509F046C0CE
:101800001092030410920C0410920B040CC08091EF
:101810001D02882341F082E090E090930C048093B5
:101820000B0410921D021092FC0380910304CEC0A1
:101830008823C9F38091140490911504A091160493
:10184000B0911704181619061A061B060CF07DC075
:1018500080910F0490911004019709F076C0809157
:10186000140490911504A0911604B091170480936C
:10187000FE039093FF03A0930004B093010483E060
:1018800090E090930C0480930B04CDCF409118040A
:101890005091190460911A0470911B04452B462B3A
:1018A000472BA9F010920304809118049091190419
:1018B000A0911A04B0911B048093FE039093FF0340
:1018C000A0930004B093010481E090E0DACF882374
:1018D00099F080911E0290911F02A0912002B09178
:1018E00021028093FE039093FF03A0930004B09322
:1018F000010484E090E0C5CF1092030482E090E000
:10190000C0CF8091FE039091FF03A0910004B0919D
:1019100001040097A105B10559F00197A109B1098A
:101920008093FE039093FF03A0930004B0930104FF
:101930008091FE039091FF03A0910004B0910104F7
:10194000892B8A2B8B2B09F06ECF80911E029091F0
:101950001F02A0912002B0912102892B8A2B8B2B90
:1019600009F44ECF81E080930304B3CF4091FE038E
:101970005091FF03609100047091010441155105DD
:101980006105710561F04150510961097109409388
:10199000FE035093FF036093000470930104409191
:1019A000FE035091FF036091000470910104452BE8
:1019B000462B472B09F037CF8111C7CF9FCF80919E
:1019C000FC03882309F431CF8091FD03CF911F914F
:1019D0000F91FF90EF90DF90CF9008951092070441
:1019E000109208041092090410920A04109206043E
:1019F00010920C0410920B0410920504109204042F
:101A000010922604109225041092030410920204EE
:101A10001092FE031092FF03109200041092010432
:101A20001092FD031092FC031092210410922204E4
:101A300010922304109224041092200410921C048B
:101A400010921D0410921E0410921F0488EE93E061
:101A5000A0E0B0E080931E0290931F02A0932002AA
:101A6000B0932102109218041092190410921A04D3
:101A700010921B0410921404109215041092160474
:101A800010921704109213041092120481E08093B4
:101A90001D02109211041092100410920F04109263
:101AA0000E0410920D0490E080E0089580910F04E0
:101AB00090911004892B19F580911D02882351F013
:101AC00080911104811106C081E08093FD03809311
:101AD000FC0308952091110430911D0281E090E0F3
:101AE000332311F090E080E030E082239323892BB0
:101AF00021F01092FD0381E0EACF1092FC030895DB
:101B000082E090E0FA01918380838FEF9FEF089548
:101B1000CF93DF93EA01009711F00E9413201982FE
:101B2000188290E080E0DF91CF910895DB0100976B
:101B300019F48FEF8C9308952EEF2C93FC013F96B0
:101B4000EF30F10508F034C08827E655F24F8F4F8B
:101B50000C941830D60DD40DD20DD00DCE0DCA0D6B
:101B6000CC0DC80DC60DC40DC10DBD0DB90DBF0DF9
:101B7000D80D80E311968C93089589E2FBCF82E221
:101B8000F9CF11961C92089583E2F4CF81E2F2CF4F
:101B900081E1F0CF87E2EECF8AE2ECCF80E1EACFBD
:101BA00084E2E8CF88E2E6CF86E2E4CF81E3E2CFC9
:101BB00080E2E0CF809133049091340408959093B3
:101BC00034048093330408958091320408959091F1
:101BD0003204892B809332040895982F9095809138
:101BE000320489238093320408958091310408954A
:101BF00080912F049091300408956115710559F07A
:101C0000FB0130E020E070E060E02417350719F0B8
:101C10006115710511F0CB010895A081B181A8175C
:101C2000B90709F4BF012F5F3F4F3696EECF809181
:101C3000350481111CC060D266D290932804809331
:101C400027040E941F180E94311890932C0480933F
:101C50002B040E94A01C0E94A71C90932A0480932E
:101C6000290481E08093350490E080E0089584EFBA
:101C70009FEF08958F929F92AF92BF92CF92DF9283
:101C8000EF92FF920F931F93CF93DF9300D000D07A
:101C900000D01F92CDB7DEB71A86198618861F822C
:101CA0001E821D821C821B821A8219828091350439
:101CB00007EF1FEF882309F49CC08E010D5F1F4FB3
:101CC0009E012B5F3F4FAE01495F5F4FBE01675FD3
:101CD0007F4F90E080E00E94241E8C01009721F04D
:101CE0000596029708F0DBC029853A852115310554
:101CF00009F402C1ED80FE804B815C81B701640F65
:101D0000751F8F8198858617970708F4F5C0E20E36
:101D1000F31ED7019C91903C09F07FC042305105E1
:101D200008F47BC011968C91409133045091340497
:101D3000452B09F49CC0913F08F071C02CE1290F9C
:101D40002D3008F48BC02DE2290F203108F489C012
:101D5000903C21F48150823008F483C088E3890FDD
:101D60008B3008F481C096E9C92E9DE0D92EE0E8B9
:101D7000FDE06D817E81AE014F5F5F4F89859A8561
:101D800019955C01C114D104A1F189809A80811454
:101D9000910479F18B819C818815990508F487C09D
:101DA00010E000E04B815C8170E060E0C7010E94C0
:101DB000423001151105E9F449815A8169857A8516
:101DC0008D819E81680F791FC501F6011995E98003
:101DD000FA800D811E812F81388549855A856FEFE4
:101DE0007FEF81E090E00E94BF1D8C01892B09F0FC
:101DF00056C0C8012A960FB6F894DEBF0FBECDBFFD
:101E0000DF91CF911F910F91FF90EF90DF90CF90D6
:101E1000BF90AF909F908F90089580E085CF30E085
:101E200020E0220F331FF901E95DFB4F0190F081A3
:101E3000E02D309709F497CF892F90E019950097FE
:101E400009F491CFDC011296ED91FC911397149651
:101E5000CD90DC90309709F08CCF1FC021E030E0AE
:101E6000E0CF22E030E0DDCF23E030E0DACFD12C4C
:101E7000C12CE8E8FDE09F3F09F07BCFE09127040B
:101E8000F0912804309721F4C90104EF1FEF0CC032
:101E90008FEF90E019950097A9F604EF1FEF898561
:101EA0009A85009709F4A5CF0E941320A2CF0E9423
:101EB000EE1E8C0189859A850E94132070E060E0F7
:101EC000C4010E94871E98878F830E94BC1D9E8339
:101ED0008D836F8178856115710559F0C8010E9465
:101EE0009F219A87898706EF1FEF892B09F058CF2A
:101EF00059CF08EF1FEF56CF08EF1FEFD0CF20913B
:101F00003504222319F020E00C94361887EF9FEF58
:101F10000895809133049091340408950E94AC1C7C
:101F20000E94061CF5D0E7E2F4E088E0DF011D9294
:101F30008A95E9F71092350490E080E008950C94BA
:101F4000641A21E040E050E0BA010C94361886E0B3
:101F500090E0FA019183808390E080E0089547E06B
:101F600050E068E572E049CEDF92EF92FF920F9366
:101F70001F93CF93DF938A01EC01C60FD71FE09028
:101F80003904F0903A04D9800E94D61ED81619065A
:101F900078F082E090E0F801918380838EEF9FEFEC
:101FA000DF91CF911F910F91FF90EF90DF900895F7
:101FB000EF2841F482E090E0F8019183808384EF80
:101FC0009FEFEECF89818093380490E00196F8016D
:101FD0009183808390E080E0E3CFCF93DF93EA01A9
:101FE0000E94151B882321F00E94E31E0E94161BED
:101FF00082E090E0998388838BEF9FEFDF91CF9110
:102000000895CF93DF93EB0186E0FB0111928A954F
:10201000E9F78FEF8883D8DD8983E7DD8A83E8DD00
:102020009D838C83DF91CF910895CF93DF93EA0155
:102030000E94181B811109C082E090E09983888377
:1020400085EF9FEFDF91CF91089590E080E0B7DDBD
:1020500081E090E09983888390E080E0F3CF0F9354
:102060001F93CF93DF93EA018C01060F171F0E9485
:10207000181B81110BC082E090E09983888385EF63
:102080009FEFDF91CF911F910F910895F80181810A
:10209000823038F082E090E0998388838EEF9FEF62
:1020A000F0CF81E090E08BDD88E090E09983888339
:1020B00090E080E0E6CFCF93DF930097D1F4EB017F
:1020C000FB01329686E0DF011D928A95E9F78FEFDA
:1020D000888385E089831A820E94D61E8B830E94A2
:1020E000D51E9D838C8381E08E838F83DF91CF917A
:1020F0000895DF91CF911ACD8FEA9FE09093370436
:1021000080933604089580913604909137040895A1
:1021100010923704109236040895809139049091FA
:102120003A040895411105C06115710581059105B5
:1021300061F06093390470933A0480933B04909368
:102140003C0440933D0481E0089580E00895FF92AF
:102150000F931F93CF93DF938A01EC01C60FD71F14
:10216000F9800E94D61EF816190668F082E090E009
:10217000F801918380838EEF9FEFDF91CF911F91C4
:102180000F91FF9008956C817D818E819F814B819D
:10219000C9DF811108C082E090E0F801918380835B
:1021A00084EF9FEFEACF89818093380490E0019615
:1021B000F8019183808390E080E0DFCFCF93DF93BD
:1021C000EA01FC01E60FF71F648175818681978122
:1021D0004381A8DF811109C082E090E09983888360
:1021E00084EF9FEFDF91CF91089581E090E0998394
:1021F000888390E080E0F6CFE9E3F4E0408151810C
:1022000062817381480F511D611D711D408351838F
:10221000628373830895CF93C09138044C2F50E0AC
:102220006091390470913A0401960E9439308C2FE4
:10223000E3DF10923804CF910895009799F48091CC
:10224000390490913A042FEFFB012083892B59F038
:102250002091380430E02F5F3F4F2417350719F4E1
:10226000CB01D9CF63CC0895009799F480913904BC
:1022700090913A042FEFFB012083892B59F0209194
:10228000380430E02F5F3F4F2417350719F4CB0196
:10229000C2CF4CCC089523E1AC01249FC001259FFF
:1022A000900D1124E0914204F0914304E80FF91FCE
:1022B000238134812250310981E02230310508F038
:1022C00080E008950F931F93CF93DF930091440410
:1022D00010914504D0E0C0E080E00C171D0749F4E0
:1022E00091E0811190E0892FDF91CF911F910F91A3
:1022F00008958111F5CFCE01CEDF2196EECFA091CA
:102300004204B0914304109729F120914404309184
:10231000450482179307F0F453E1589F9001599FA9
:10232000300D1124A20FB31FED91FC91119730973E
:1023300089F012968C91681768F48BE0689FE00D25
:10234000F11D112480819181892B21F081E09281FE
:10235000491708F080E008959C0143E1429FC001C5
:10236000439F900D1124E0914204F0914304E80F43
:10237000F91F8385823091F481E090E06581768158
:1023800040912202509123026417750711F490E0E6
:1023900080E0892B19F081E0232B09F080E008957B
:1023A000EF92FF920F931F93CF93DF93EA01FC010B
:1023B000E60FF71F02811381E480F5804F2D6E2D0B
:1023C000C8019DDF81110DC082E090E09983888370
:1023D0008EEF9FEFDF91CF911F910F91FF90EF90C4
:1023E0000895C80158DF882339F082E090E099838E
:1023F000888388EF9FEFEECF109329020093280285
:10240000E0922A02F0922B0281E090E09983888387
:1024100090E080E0DFCFCF92DF92EF92FF920F93B8
:102420001F93CF93DF937A01EC01C60FD71FC090A3
:102430002802D090290200912A0210912B02412FEC
:10244000602FC6015CDF811110C082E090E0F701CF
:10245000918380838AEF9FEFDF91CF911F910F913E
:10246000FF90EF90DF90CF900895C60114DF88238E
:1024700041F082E090E0F7019183808388EF9FEF45
:10248000EBCF4C815D816E817F819A8189818F3F05
:1024900041F082E090E0F701918380838EEF9FEF1F
:1024A000DBCFE3E1EC9D9001ED9D300D1124E09137
:1024B0004204F0914304E20FF31F0190F081E02DFC
:1024C0002BE0029FE00DF11D11240190F081E02D21
:1024D00027E0129FE00DF11D1124808391838B81F1
:1024E000828343835483658376831F5F10932B021B
:1024F00081E090E0F7019183808390E080E0ACCFB1
:10250000EF92FF920F931F93CF93DF937A018C0189
:10251000060F171FC0914204D0914304209781F009
:1025200021E030E0F8018281938140914404509190
:1025300045048417950710F030E020E0232B71F458
:1025400082E090E0F701918380838EEF9FEFDF912F
:10255000CF911F910F91FF90EF90089543E1489F15
:102560009001499F300D1124C20FD31F94DE8823A0
:1025700041F082E090E0F7019183808388EF9FEF44
:10258000E6CFF8012481358120383105C8F68781EE
:102590008111D6CF4181842F90E08F7E009741F04A
:1025A00082E090E0F7019183808386EF9FEFCFCFA9
:1025B0004F833E832D83268128871986223010F48D
:1025C00021E0288721E030E0F70131832083BFCF6D
:1025D00088E090E0FA019183808390E080E00895A4
:1025E000FB018FEF808381E181838FEF9FEF9383E6
:1025F000828380E890E09583848316821782089511
:10260000FB018FEF808391E09183828393838483A6
:1026100084E3858381E090E0978386830895DF9249
:10262000EF92FF920F931F93CF93DF93EA01FC0188
:10263000E60FF71F8181813071F082E090E099838D
:1026400088838FEF9FEFDF91CF911F910F91FF90C4
:10265000EF90DF90089582819381D4802581E68078
:10266000F78000914204109143040115110539F4DB
:1026700082E090E0998388838CEF9FEFE4CF4091D4
:102680004404509145048417950738F082E090E0A7
:10269000998388838EEF9FEFD6CF892B39F082E024
:1026A00090E09983888386EF9FEFCDCF8D2D8D7F2E
:1026B000B1F72130A1F781E0D11006C091E0E91611
:1026C000F10431F080E004C0E2E0EE16F104D0F352
:1026D000882329F390E080E0DEDD882339F082E072
:1026E00090E09983888388EF9FEFADCFF801D38680
:1026F00081E08487F686E586108A178681E090E07F
:102700009983888390E080E09ECF4CE050E062E8BF
:1027100072E073CA8F929F92BF92CF92DF92EF9234
:10272000FF920F931F93CF93DF93EA01FC01E60F13
:10273000F71F828193810481B580E0914204F0917A
:102740004304309791F482E090E0998388838CEF82
:102750009FEFDF91CF911F910F91FF90EF90DF904E
:10276000CF90BF909F908F90089520914404309116
:1027700045048217930738F082E090E099838883BC
:102780008EEF9FEFE6CF23E1289F6001299FD00CB9
:102790001124EC0DFD1DE080F180E114F10499F2AB
:1027A0008281081748F78BE0089F80011124E00E12
:1027B000F11EF70180819181892B29F6BB20E1F27E
:1027C000F7E0BF9E40011124C4010E94DA1FF70107
:1027D00091838083E0914204F0914304EC0DFD1D50
:1027E0000190F081E02DE00FF11F80819181009731
:1027F00039F482E090E0998388838DEF9FEFA9CF31
:10280000A40170E060E00E94423080914204909107
:102810004304C80ED91EF60180819181080F191F4B
:10282000F801B28281E090E09983888390E080E0B3
:1028300090CFAF92BF92CF92DF92FF920F931F93F0
:10284000CF93DF93EA01FC01E60FF71F82819381AA
:10285000F48000914204109143040115110581F4A4
:1028600082E090E0998388838CEF9FEFDF91CF9196
:102870001F910F91FF90DF90CF90BF90AF90089580
:1028800020914404309145048217930738F082E088
:1028900090E0998388838EEF9FEFE8CF2FEF2F0D85
:1028A0002C3FA8F723E1289F6001299FD00C112419
:1028B0000C0D1D1DF80180819181892B89F6FBE0AB
:1028C000FF9E50011124C5010E94DA1FF801918377
:1028D0008083E0914204F0914304EC0DFD1D808162
:1028E0009181009739F482E090E0998388838DEF9D
:1028F0009FEFBCCFA50170E060E00E944230E09104
:102900004204F0914304EC0DFD1DF28281E090E061
:102910009983888390E080E0A9CFCF92DF92EF92F5
:10292000FF920F931F93CF93DF93860F971FFC01A6
:10293000028113818091420490914304892B81F09C
:1029400082E090E0FA01918380838CEF9FEFDF912A
:10295000CF911F910F91FF90EF90DF90CF9008954E
:10296000C801B0E0A0E00197A109B1098F3F9F4FD6
:10297000A105B10540F082E090E0FA0191838083E7
:102980008EEF9FEFE4CF7A0183E1809F6001819F0A
:10299000D00C1124C6010E94DA1FEC01009741F40B
:1029A00082E090E0F701918380838DEF9FEFCFCF9E
:1029B000A60170E060E00E944230D0934304C093CF
:1029C0004204109345040093440490E080E02FEF0C
:1029D0003FEF41E061E070E08017910741F481E052
:1029E00090E0F7019183808390E080E0B0CF3A8B54
:1029F000298B1B864C877E876D87188A1F860196D8
:102A00006396EACFCF92DF92EF92FF920F931F93DC
:102A1000CF93DF93EC01D12CC12C10E000E0F12C1E
:102A2000E12C6A816017110609F0CCF483E0689FFD
:102A3000B0011124AE014F5E5F4FC7010E943F20DD
:102A4000009721F02FEF3FEF3A8B298BDF91CF9149
:102A50001F910F91FF90EF90DF90CF900895E88144
:102A6000F981EC0DFD1D438154818D859E85489F24
:102A70009001499F300D589F300D1124C9010196D6
:102A80000115110519F44F8144FD049661E070E0D1
:102A90000E94871EE816F90608F47C010F5F1F4F9D
:102AA0008BE0C80ED11CBDCFF8942091400430912A
:102AB000410481E02115310509F080E0232B09F064
:102AC000789408952F923F924F925F926F927F92E7
:102AD0008F929F92AF92BF92CF92DF92EF92FF922E
:102AE0000F931F93CF93DF933C01660E771EF30184
:102AF000828193814C01B12CA12CC0914204D091D0
:102B00004304209769F021E030E060914404709123
:102B100045048617970710F030E020E0232BD1F40E
:102B200082E090E0FA01918380838EEF9FEFDF9146
:102B3000CF911F910F91FF90EF90DF90CF90BF90BA
:102B4000AF909F908F907F906F905F904F903F904D
:102B50002F90089580922C0290922D02A0922E0226
:102B6000B0922F0263E1689F9001699F300D11249C
:102B7000C20FD31FF3018181833040F082E090E0E7
:102B8000FA019183808386EF9FEFD1CF2A012B81B9
:102B90003C81232BF1F4288139819F8191FF2EC044
:102BA000232B09F46FC0209147049A81422F490FCB
:102BB0005527551FBA0141E050E06138710514F006
:102BC00050E040E0452B09F45DC02A87920F9093B6
:102BD00047048150823008F481C066DF882309F4FD
:102BE000D8C0F3018181813009F48DC008F47BC025
:102BF000823009F4C6C090E080E0ADC0232B09F418
:102C000041C0209146049A81E22FE90FFF27FF1F60
:102C100041E050E0ED3FF10514F050E040E0452B7D
:102C200089F12A87920F90934604D3CFA081B18176
:102C3000A20FB31F11966C91060F111D0196295F0B
:102C40003F4F8417950794F38D859E85089F10014B
:102C5000099F300C189F300C1124C114D104D1F4F9
:102C60008F8184FF17C00E94D51EF5E02F0E311C06
:102C700021E08215930508F420E0A701455F5F4F2E
:102C800021110EC082E090E0F2019183808387EFF2
:102C90009FEF4DCF0E94D51E2FEF221A320AE8CFA8
:102CA00088819981E80EF91EF70114830383FFEFF1
:102CB000CF1ADF0A7A018A818C151D0409F00CF401
:102CC0008CCFE881F981EE0DFF1D428150E030E0AC
:102CD00020E010E000E090E080E0B3CFF12CE12CA8
:102CE000D12CC12CE8CF81E090E09C838B83EADA81
:102CF000882309F480CF81E090E00E94DF0D80E41A
:102D00000E94ED0D78CF89899A89019661F083E060
:102D100090E09C838B8382E090E00E94DF0D80E452
:102D20000E94E70D68CF8D819E8120912202309113
:102D3000230282179307D1F4609126027091270233
:102D4000AE014F5E5F4F80912402909125020E9458
:102D50005E210097E1F2789422E030E0F2013183C5
:102D60002083892B99F08DEF9FEFE1CE89288A2867
:102D70008B2869F6029758F6CE0144DE188A1F8622
:102D8000E8CF82E090E09C838B8335CF90E080E0B9
:102D9000CECE82E090E0F2019183808385EF9FEFB9
:102DA000C6CE8F929F92AF92BF92CF92DF92EF9258
:102DB000FF920F931F93CF93DF93EA018C01060FCD
:102DC000171FF8018181833098F082E090E09983A9
:102DD000888386EF9FEFDF91CF911F910F91FF9036
:102DE000EF90DF90CF90BF90AF909F908F9008951D
:102DF0008091420490914304892B61F081E090E03E
:102E00002091440430914504232B11F490E080E09C
:102E1000892B39F482E090E0998388838EEF9FEFCD
:102E2000DACF42DE882309F4E0C0F80181818130E5
:102E300009F496C0E8F0823099F42091440430916E
:102E40004504E0914204F091430490E080E041E0C9
:102E500050E02817390709F0BEC034DA811117C0D5
:102E6000789481E090E09983888390E080E0B3CF0C
:102E70002091440430914504E0914204F0914304D0
:102E800090E080E041E050E02817390741F481E00C
:102E900090E00E94DF0D80E40E94ED0DE1CF6381A0
:102EA0007481672B11F05483438301967396ECCFA2
:102EB000E0914204F0914304E00FF11F238134813B
:102EC00022303105D9F4218932892F3F3F4FB1F4A7
:102ED0002581368140912202509123022417350723
:102EE00061F5AF014F5E5F4F60912602709127023E
:102EF00080912402909125020E945E21EFEFCE1A6C
:102F0000DE0AEE0AFE0A0D5E1F4F40914404509106
:102F1000450470E060E0C416D506E606F70644F501
:102F2000009731F27894892B09F49BCF82E090E0EE
:102F3000998388838DEF9FEF4ECFC114D104E104B4
:102F4000F104E1F622303105C8F6CF015BDDE091F6
:102F50004204F0914304E00FF11F108A1786CECF90
:102F600010E000E090E080E0C12CD12C7601CDCFC4
:102F70000097C1F610E000E0812C912C540183E011
:102F8000E82EF12C1AC0E0914204F0914304E00FC6
:102F9000F11F83819481029749F4F482E38282E0F5
:102FA00090E00E94DF0D80E40E94E70DFFEF8F1A92
:102FB0009F0AAF0ABF0A0D5E1F4F80914404909193
:102FC0004504B0E0A0E088169906AA06BB06DCF22C
:102FD00090E080E0A7CF638174816230710511F4C5
:102FE000548343830196739634CF82E090E09983B3
:102FF000888385EF9FEFEFCE0097B9F48FEFFB0149
:10300000808320912C0230912D0243E1429FC00128
:10301000439F900D1124E0914204F0914304E80F86
:10302000F91F8285FB01818308950C94960D88E039
:1030300090E0FA019183808390E080E008951092FF
:10304000410410924004E2E4F4E086E0DF011D92C6
:103050008A95E9F785E893E190933F0480933E04D5
:10306000089580913E0490913F0408952F923F92DD
:103070004F925F926F927F928F929F92AF92BF9288
:10308000CF92DF92EF92FF920F931F93CF93DF9334
:10309000CDB7DEB760970FB6F894DEBF0FBECDBFD9
:1030A000F894E0914004F09141043196F09341048A
:1030B000E09340047894A0914204B0914304BA8311
:1030C000A983109709F4FAC1E0914404F0914504F2
:1030D000EF2B09F4F3C128874B875C876D877E87C8
:1030E0009A878987B88BAF87312C212CF12C512CF2
:1030F000412C80914404909145042816390610F41F
:10310000FF2029F1F89480914004909141040197A7
:1031100090934104809340047894C20160960FB666
:10312000F894DEBF0FBECDBFDF91CF911F910F91FD
:10313000FF90EF90DF90CF90BF90AF909F908F90D7
:103140007F906F905F904F903F902F900895B101C6
:1031500090E080E088D4682EEF85F889878181FD32
:103160003DC0838194810397C9F5258136813C83D5
:103170002B8389859A852817390781F5C101ECD8F9
:10318000782E8823A9F1AF85B8891F968D919C91DF
:103190005097019621E01D964D915C9184179507FB
:1031A00009F020E02F83B12CA12CEF85F8898281D2
:1031B0008A151B0419F014F0FF20E9F0F885FF23AD
:1031C00009F46CC1AF85B88950961C921E921F9766
:1031D000662021F0B10190E080E047D4FFEF2F1A84
:1031E0003F0A2F8538892D5E3F4F388B2F8781CF3F
:1031F000B1E0BF83D8CFC0D49E838D83E885EE2312
:10320000E9F0772009F43CC1AF85B8891F968D910C
:103210009C91892B79F0BBE0BA9DC001BB9D900DBC
:103220001124AF85B889ED91FC91E80FF91F8581D4
:103230009681F9D6BFEFAB1ABB0AB7CF81E07720F2
:1032400039F0EF85F88927853089232B09F080E054
:10325000F82EE12CA114B10439F4AF85B889179682
:10326000EC90E4FAEE24E0F8BBE0BA9D6001BB9D6F
:10327000D00C1124882309F424C1AF85B889ED91BD
:10328000FC911197EC0DFD1D438154811D962D91EC
:103290003C91429FC001439F900D529F900D11247D
:1032A000E1105DC001969087878361E070E08781BF
:1032B00090852DD5EF85F88921893289008111818A
:1032C0000C0D1D1D2F3F320709F44BC0BC01C90175
:1032D0000E949F21D80116969C938E931597AF85D7
:1032E000B889ED91FC911197EC0DFD1D05811681BA
:1032F0000115110509F4CDC0ED81FE810E0F1F1FD0
:103300001A968C918A0DD8018C93E1102FC00F5F13
:103310001F4FAF85B889ED91FC91EC0DFD1D128713
:103320000187AF85B889ED91FC91EC0DFD1D85817C
:103330009681892B09F4A4C08091220290912302E6
:103340002B813C812817390709F465C0772011F0DB
:1033500001851285912C812C1A8219824AC005960A
:10336000A2CF28D6F80196838583B9CF8B859C851B
:10337000AD85BE85F80181839283A383B4830B5FFF
:103380001F4FC7CFE080F180E80CF91CD7011396DE
:103390006D917C9114978C918F3F09F473C0E1E09B
:1033A000F0E002C0EE0FFF1F8A95E2F7CF01092E71
:1033B000000CAA0BBB0BFB01408151816281738120
:1033C00084239523A623B72321E0892B8A2B8B2BDB
:1033D00009F420E0D8012C93D70111968C91080FA5
:1033E000111DE981FA813196FA83E983F7E08F0EA6
:1033F000911CAF85B889ED91FC91EC0DFD1D82818A
:1034000029813A818217130611F00CF0BBCF772087
:1034100011F0128701873F81332391F1AF85B8897D
:10342000ED91FC91EC0DFD1D61E070E087819085D0
:103430006ED4AF85B889ED91FC91EC0DFD1DE78050
:10344000F08445815681E1E0F0E0662011F0F0E083
:10345000E0E00D811E819C01B101882799278E1B18
:103460009F0B8DD32C01892B59F0EF85F889808132
:103470009181C80ED91ED60115968D919C91D3D5F8
:10348000F12CD8CEF701418150E0C8010E943930BB
:10349000A3CF86EF482E55245A94CCCEEF85F889D9
:1034A000878590890196908B878725853685821739
:1034B000930709F08DCE108A17868ACE512C412CA5
:1034C00021CE10E000E02DCF2F923F924F925F92DD
:1034D0006F927F928F929F92AF92BF92CF92DF9224
:1034E000EF92FF920F931F93CF93DF93809142044B
:1034F0009091430410E000E0892BA9F0D5DA0AEF9F
:103500001FEF882381F02090440430904504C0913F
:103510004204D0914304D12CC12C10E000E02C14C3
:103520003D04A9F47894C801DF91CF911F910F91C8
:10353000FF90EF90DF90CF90BF90AF909F908F90D3
:103540007F906F905F904F903F902F900895C601AD
:103550000E94AC11882309F18B819C810397E9F4C7
:103560008F859889892BC9F0B60190E080E07BD2E5
:1035700021E030E0882311F030E020E0442455249D
:10358000421A530AB12CA12C912C812C8A818815C6
:10359000190409F038F4188A1F864FEFC41AD40AA8
:1035A0006396BDCFE881F981EA0DFB1D8581968187
:1035B000892BA1F161E070E087819085A8D33C015F
:1035C000DBD28C01E881F981EA0DFB1D81859285B2
:1035D00025813681200F311FAC01421B530B9A010C
:1035E00047815085421B530B70E060E00E944230DF
:1035F000E881F981EA0DFB1DE780F0844581568161
:103600009301B601C201BBD28C01892B39F0E8814C
:10361000F981EA0DFB1D8581968105D55FEF851A3D
:10362000950A8BE0A80EB11CB1CF3ECA78940895DC
:103630002F923F924F925F926F927F929F92AF92A2
:10364000BF92CF92DF92EF92FF920F931F93CF938F
:10365000DF9300D000D0CDB7DEB7009142041091C7
:103660004304992493940115110509F43EC0A090D8
:103670004404B090450418DA982E8823B1F11092D2
:103680004304109242041092450410924404109294
:103690004604109247048FEF9FEFDC0180932C02C9
:1036A00090932D02A0932E02B0932F0278947FD393
:1036B0001E830D83C12CD12C7601C501B0E0A0E0A2
:1036C00089839A83AB83BC8322242A94322C8981F8
:1036D0009A81AB81BC81C816D906EA06FB06F4F0D4
:1036E000C801A1D480E40E94ED0D892D26960FB665
:1036F000F894DEBF0FBECDBFDF91CF911F910F9128
:10370000FF90EF90DF90CF90BF90AF909F907F9011
:103710006F905F904F903F902F900895AD81BE8144
:1037200015968D919C91169720912202309123023B
:1037300082179307D1F451968D919C91EED5ED812E
:10374000FE8180819181B12CA12C412C512C320120
:10375000892B89F5BFEFCB1ADB0AEB0AFB0AED8157
:10376000FE817396FE83ED83B2CFC114D104E104D0
:10377000F10429F7029718F7ED81FE81818992897A
:103780008F3F980709F029D5AD81BE8152963C92B2
:103790002E925197D4CF8A0D9B1DDC018D919C9167
:1037A000009709F040D4BFEF4B1A5B0A6B0A7B0A03
:1037B000EBE0AE0EB11CAD81BE818D919C91119755
:1037C00012964C9150E070E060E044165506660693
:1037D00077060CF328D4BECFCF93DF93EA0128DF1E
:1037E000811109C082E090E09983888385EF9FEF83
:1037F000DF91CF91089581E090E00E94DF0D81E09C
:1038000090E09983888390E080E0F2CF11DF1092FE
:103810003F0410923E04089542E050E06AEC72E0EA
:103820000C94FD0DFF920F931F93CF93DF938A01AA
:10383000EC01C60FD71FF980B9D20897F816190600
:1038400071F068F082E090E0F801918380838EEF60
:103850009FEFDF91CF911F910F91FF9008956C81A1
:103860007D818E819F814B810E949210811108C0C1
:1038700082E090E0F8019183808384EF9FEFE9CFAD
:10388000F9800E948D104F2D50E0BE01685F7F4F80
:103890000E94393089810E94FC1081E090E0F8019B
:1038A0009183808390E080E0D4CFDF92EF92FF920B
:1038B0000F931F93CF93DF938A01EC01C60FD71F9D
:1038C0000E948D107C01D98071D2DD2059F00297C1
:1038D00021E030E0D816190619F010F030E020E0B1
:1038E000232B79F482E090E0F801918380838EEFBE
:1038F0009FEFDF91CF911F910F91FF90EF90DF909D
:103900000895EF2841F482E090E0F80191838083EC
:1039100084EF9FEFEECFF9800E948D104F2D50E085
:10392000BE016E5F7F4F0E94393089810E94FC107A
:1039300081E090E0F8019183808390E080E0D9CF2E
:103940008CE09CE190934904809348040895809111
:1039500048049091490408950895FC011182108251
:10396000938382830895DB011D921C92DC011296E1
:10397000ED91FC9113977183608313967C936E9302
:1039800012970895FC0180819181DB018D939C93B6
:10399000A081B181109741F08D919C91918380839A
:1039A000892B11F4F383E2830895FC0180819181D6
:1039B000DB018D939C93892B11F473836283718354
:1039C00060830895FC01118210829383828308959D
:1039D000CF93DF931F921F92CDB7DEB71A82198261
:1039E000F894BE016F5F7F4F8FE494E0CBDF898155
:1039F0009A81009709F017D389819A81892B89F7D9
:103A0000BE016F5F7F4F83E594E0BCDF89819A81BF
:103A1000009709F008D389819A81892B89F77894D6
:103A20000F900F90DF91CF910895CF93DF931F9266
:103A30001F92CDB7DEB71A821982F894BE016F5F6C
:103A40007F4F8BE494E09EDF89819A81009709F093
:103A5000EAD289819A81892B89F778940F900F9007
:103A6000DF91CF91089581E0089590E080E008957E
:103A7000EF92FF920F931F93CF93DF931F921F92AA
:103A8000CDB7DEB71A82198280914A0407EF1FEF83
:103A90008823A1F1F894BE016F5F7F4F83E594E026
:103AA00071DF789489819A81EE24E394F12C892B3B
:103AB00051F4F894BE016F5F7F4F8FE494E062DFB2
:103AC0007894F12CE12C89819A810EEF1FEF0097F9
:103AD000A9F0FC014281538164E070E074D68C014E
:103AE000892B61F0F89469817A81C701880F991F49
:103AF000880F991F815B9B4F58DF7894C8010F9006
:103B00000F90DF91CF911F910F91FF90EF9008954B
:103B10000F931F93CF93DF9300D01F92CDB7DEB7E3
:103B20001C821B821A82198280914A0407EF1FEFC0
:103B30008823C1F0AE014D5F5F4F64E070E0CE01BD
:103B40000196B4D68C01892B69F4E981FA818B81C5
:103B50009C8193838283F89469817A818BE494E0D9
:103B600002DF7894C8010F900F900F900F90DF91B3
:103B7000CF911F910F910895B9D7049608958F9210
:103B80009F92AF92BF92CF92DF92EF92FF920F93EC
:103B90001F93CF93DF931F921F92CDB7DEB71A8288
:103BA0001982BC016F5F7F4F6330710598F0AA24C2
:103BB000AA94BA2CC5010F900F90DF91CF911F915D
:103BC0000F91FF90EF90DF90CF90BF90AF909F90BC
:103BD0008F9008954115510551F3480159018A010B
:103BE0006C01CADF8815990511F7E114F104F9F2A7
:103BF0008E0D9F1DA816B906D0F280914A04882325
:103C0000F1F0F894B501645071099701AE014F5F6E
:103C10005F4FC8010496DFD65C01892B71F489815E
:103C20009A81F80193838283C601880F991F880FB8
:103C3000991FB801815B9B4F96DE7894BBCF87EFCD
:103C4000A82EBB24BA94B6CFAF92BF92CF92DF9288
:103C5000EF92FF920F931F93CF93DF931F921F92C8
:103C6000CDB7DEB71A821982892B09F047C06115DA
:103C7000710509F443C04115510509F43FC02115F0
:103C8000310509F43BC001151105C1F180914A04C9
:103C90008823B9F179016A015B01F894BE016F5F75
:103CA0007F4F8BE494E06EDE789489819A8100974F
:103CB00059F1DC0112966D917C91A8010496A4D66D
:103CC0008C01E981FA81D501ED93FC938281938186
:103CD0000496F601918380834FDFD7018D939C93E7
:103CE000C8010F900F90DF91CF911F910F91FF901E
:103CF000EF90DF90CF90BF90AF9008950FEF1FEF40
:103D0000EFCF07EF1FEFECCF0EEF1FEFE9CFCF9311
:103D1000DF93EC01672B71F4F2D68C179D0760F0EE
:103D2000E5D62496C80FD91FE4D68C0F9D1FDF91CE
:103D3000CF910895E1D6F1CF90E080E0F8CF0F93D6
:103D40001F93CF93DF9320914A0421112BC08B0145
:103D5000EC018FE494E001DE83E594E0FEDD8BE48A
:103D600094E0FBDD97D00097C1F4C9D670E060E025
:103D7000CEDF40E352E062E070E081D1009769F469
:103D80008091300290913102CCD6B801CE0101D59C
:103D9000009719F421E020934A04DF91CF911F91FD
:103DA0000F91089584EF9FEFF8CFA6C6A8C6CF93D2
:103DB000DF93A8D6EC01892B11F40ADE36DECE01A2
:103DC000DF91CF910895CF93DF939CD6EC01892B9F
:103DD00009F4FEDDCE01DF91CF910895809130028C
:103DE000909131020895CF93DF9380914A04D0E0FF
:103DF000C0E08823D1F09AD6EC01892BB1F4E8DD3C
:103E000014DE8091300290913102E7D1E8D2EC01CA
:103E1000892B59F48FE494E0D5DD83E594E0D2DD7D
:103E20008BE494E0CFDD10924A04CE01DF91CF9174
:103E30000895EF92FF920F931F93CF93DF93EC01BE
:103E40007A018B010F5F1F4F0E9DA0010F9D500D3A
:103E50001E9D500D112470E060E00E94423090E001
:103E600080E0F0E0E0E02FEFE816F90639F4DF91AA
:103E7000CF911F910F91FF90EF9008951A821982B0
:103E80002883309711F0D283C1830196FE01C00FC1
:103E9000D11FEACFCF92DF92EF92FF920F931F9341
:103EA000CF93DF930EE615E00C7F43E050E062E332
:103EB00072E088E392E01AD482E3E82E82E0F82EE2
:103EC00098E3C92E92E0D92ECDEDD5E0D7014D91E2
:103ED0005D917D01F601619171916F0119830883F4
:103EE0005D834C835B834A837F836E839B012F5F5B
:103EF0003F4F249FC001259F900D349F900D1124AA
:103F0000998788870115110511F0C80192DF88850E
:103F10009985080F191F2A96F8E3EF16F2E0FF06BD
:103F2000A9F6E9E5F4E082E191E0DF019C011D9250
:103F300021503040E1F7109258041092570410922B
:103F4000FC051092FB05109200061092FF051092DE
:103F5000FE051092FD0510920206109201061092C5
:103F6000040610920306109206061092050610929F
:103F70000A0610920906109208061092070610927F
:103F80000C0610920B0610920E0610920D0610925F
:103F9000DA051092D9051092DC051092DB0590E04D
:103FA00080E0DF91CF911F910F91FF90EF90DF9014
:103FB000CF9008950097F1F0F894A8E3B2E0EDED0A
:103FC000F5E030E020E04D915D9148175907A8F0E9
:103FD000428153814115510581F08AE0829FF001B1
:103FE000839FF00D1124E352FA4F80819181009755
:103FF00059F4789490E080E008952F5F3F4F3A960F
:104000002330310501F7F5CFDC0111966D917C91DC
:10401000718360834150510953834283FC01219392
:10402000CF0178940895009749F1DC018E91853095
:1040300041F4E091DB05F091DC053097F9F0CD011A
:1040400019948530D8F4282F30E0F8948FEF8C93B2
:104050008AE0829FF001839FF00D1124E352FA4F12
:104060008081918112969C938E931197B183A08346
:104070008281938101969383828378940895CF926D
:10408000DF92EF92FF920F931F93CF93DF939C01E8
:104090008CE594E08C7F4115510509F49BC02115F6
:1040A000310509F497C06115710509F493C07A01CF
:1040B000AB01B9016D5F7F4F6C7F9B012F5F3F4F5D
:1040C000249F8001259F100D349F100D1124F8941A
:1040D0002091FB053091FC05232B59F42091030618
:1040E000309104062115310569F12017310708F0D8
:1040F00058C02091050630910606232B91F420919B
:10410000030630910406820F931F20910D06309113
:104110000E062115310509F441C02017310708F0BA
:1041200056C07894CFEFDFEF86EF9FEFF701D18392
:10413000C083DF91CF911F910F91FF90EF90DF909F
:10414000CF900895C3E0D0E0C0905704D0905804B9
:104150002FE031E02C193D092017310710F32AE038
:104160002C9FF0012D9FF00D1124E352FA4F918303
:104170008083558344835383428377836683118787
:104180000087009709F055DE0C0D1D1D1093580493
:1041900000935704789490E080E0C8CFC4E0D0E06A
:1041A000D3CFC3E0D0E02AE02C9FF0012D9FF00D8B
:1041B0001124E352FA4F91838083558344835383C0
:1041C000428377836683009729F333DEE3CFC4E02D
:1041D000D0E0E9CF8FEF9FEFACCF9C010397029720
:1041E00008F069C0F89484E09AE0482F50E0241762
:1041F00035070CF44DC091E08AE0829FF001839F67
:10420000F00D1124E352FA4F1182108215821482AC
:1042100013821282178216829923B1F18091FB05D5
:104220009091FC05892BA9F4209103063091040696
:104230002115310571F08091570490915804821B2B
:10424000930B909358048093570410920406109295
:1042500003068091050690910606892BA9F420910A
:104260000D0630910E062115310571F0809157042D
:1042700090915804821B930B909358048093570499
:1042800010920E0610920D06789490E080E008954A
:10429000949FF001959FF00D1124E352FA4F408155
:1042A0005181452B31F440855185452B11F48150C6
:1042B0009CCF90E0A1CF8FEF9FEF0895411551055E
:1042C00049F1009739F16115710521F1F8942091B8
:1042D000D9053091DA05232BB9F42091DB05309113
:1042E000DC05232B89F49093DA058093D90570932C
:1042F000DC056093DB05789425E030E090E080E019
:10430000FA0131832083089578942FEF3FEF86EFF1
:104310009FEFF6CF8FEF9FEF0895059769F4F8941C
:104320001092DA051092D9051092DC051092DB0587
:10433000789490E080E008958FEF9FEF08956115E5
:10434000710519F4F0E0E0E011C08530910581F4C9
:10435000E091D905F091DA053097A1F3CB010196F0
:104360001995009779F3FC0185E08193CF010895B9
:104370009C01235031092230310520F72AE0289F83
:10438000D001299FB00D1124A352BA4F2D913C9119
:104390001197232BB9F216962D913C91179726175A
:1043A000370780F2F89412962D913C9113972115BE
:1043B000310529F0ED91FC911197309711F4789423
:1043C000C1CF4181528111965C934E9321503109A6
:1043D00013963C932E93129781937894C7CFEBE674
:1043E000F5E08EE6DF011D928A95E9F7E9E5F4E054
:1043F00082E191E0DF019C011D9221503040E1F704
:104400001092580410925704EDEDF5E082E3DF01BD
:104410001D928A95E9F7E9EDF5E084E0DF011D9250
:104420008A95E9F790E080E00895CF93DF93C091FB
:104430003E02D0913F02CF3FDC0759F420D4909345
:104440003F0280933E0297FF09C0D0933F02C09382
:104450003E0284EF9FEFDF91CF91089590E080E0DE
:10446000FACF8230910528F480930F0690E080E027
:1044700008958FEF9FEF08954F925F926F927F9212
:10448000AF92BF92CF92DF92EF92FF920F931F9362
:10449000CF93DF931F921F92CDB7DEB71A82198296
:1044A000009709F478C06115710509F474C0209172
:1044B0003E0230913F0207EF1FEF2F3F3F4F09F4BD
:1044C00044C06B015C01412C512C3201F12CE12CD8
:1044D00010E000E09E012F5F3F4FA6014E195F09DB
:1044E000B5016E0D7F1D80913E0290913F0226D452
:1044F000892B09F04AC089819A81009741F4E1141F
:10450000F10429F420910F06222309F441C0E80E9A
:10451000F91EEC14FD04C8F480E8481684E8580637
:104520008EE16806710418F560E070E0CB0169D790
:104530002AE0420E511C611C711C0A3F4FEF140708
:1045400021F0043F8FEF1807A1F4C8010F900F90DE
:10455000DF91CF911F910F91FF90EF90DF90CF905F
:10456000BF90AF907F906F905F904F90089501EF54
:104570001FEF81E090E0013F2FEF120711F090E074
:1045800080E0892B09F4A6CFE0CF04EF1FEFDDCF49
:104590000AEF1FEFDACF0FEF1FEFD7CF4F925F92E7
:1045A0006F927F92AF92BF92CF92DF92EF92FF9283
:1045B0000F931F93CF93DF931F921F92CDB7DEB758
:1045C0001A821982009709F478C06115710509F4FF
:1045D00074C020913E0230913F0207EF1FEF2F3F42
:1045E0003F4F09F444C06B015C01412C512C320156
:1045F000F12CE12C10E000E09E012F5F3F4FA6015F
:104600004E195F09B5016E0D7F1D80913E0290919C
:104610003F024AD3892B09F04AC089819A810097C9
:1046200041F4E114F10429F420910F06222309F446
:1046300041C0E80EF91EEC14FD04C8F480E84816E9
:1046400086E9580688E96806710418F560E070E0AC
:10465000CB01D7D62AE0420E511C611C711C0E3FC3
:104660004FEF140721F0043F8FEF1807A1F4C801A2
:104670000F900F90DF91CF911F910F91FF90EF90CE
:10468000DF90CF90BF90AF907F906F905F904F90F2
:10469000089502EF1FEF81E090E0023F2FEF120735
:1046A00011F090E080E0892B09F4A6CFE0CF04EF71
:1046B0001FEFDDCF0EEF1FEFDACF0FEF1FEFD7CFDA
:1046C00080913E0290913F028F3F980749F0CFD2F0
:1046D000892B49F48FEF9FEF90933F0280933E0226
:1046E00090E080E0089584EF9FEF0895CF92DF92ED
:1046F000EF92FF920F931F93CF93DF9321E0411529
:10470000510509F020E04150510921112CC0DC0174
:10471000FB01D12CC12C21E022C03FEFC31AD30AE8
:104720007D010D911D91E701EA80FB80E016F10605
:10473000A8F420813181E280F380F182E08233832A
:104740002283ED90FC9011979D0122503109E901DF
:10475000F982E88211961C930E9320E03296C416DB
:10476000D506D8F2D2CFDF91CF911F910F91FF9054
:10477000EF90DF90CF900895FC01680F791F90E0D3
:1047800080E0E617F70709F408952191820F911D43
:10479000F8CF20911006211113C047DE009791F445
:1047A0001092160610921506109214061092130617
:1047B000109212061092110621E02093100608951F
:1047C00084EF9FEF0895AF92BF92CF92DF92EF9266
:1047D000FF920F931F93CF93DF93009709F460C06C
:1047E0004630510508F45CC020911006C7EFDFEF9A
:1047F000222309F449C08C01060F171FF801C0805D
:10480000D180C114D10409F44EC096012A5F3F4FF4
:104810004217530708F447C07C0180911506909118
:10482000160693838283B6016C5F7F4F5801A60EF4
:10483000B71EC801A1DFF5019183808364E070E0B9
:10484000C8011ADEEC01892BF9F481E090E009DE61
:10485000B601C801049610DEEC01892B91F462E0E8
:1048600070E0C50109DEEC01892B59F4C701DBDBDF
:1048700080911506909116060196909316068093E6
:10488000150690E080E0EDDDCE01DF91CF911F9124
:104890000F91FF90EF90DF90CF90BF90AF90089571
:1048A000CFEFDFEFF1CFC9EFDFEFEECF6F927F9267
:1048B0008F929F92AF92BF92CF92DF92EF92FF9230
:1048C0000F931F93CF93DF9300D01F92CDB7DEB726
:1048D000009709F47AC04115510509F476C020917A
:1048E000100607EF1FEF222309F44DC03A017B01A8
:1048F0005C0164E070E0CE01019650DE8C01892BF2
:1049000009F041C009811A810115110509F45AC045
:10491000480186E0880E911CB701680D791D8091D1
:104920004002909141020BDD6C01009709F450C0E8
:10493000A70170E060E00E94423089819A81AB81DA
:10494000BC81EC0CFD1CF70181939193A193B19371
:104950007F0181E090E085DDB801C7011FDE892B72
:1049600031F562E070E0C701800F911F17DE8C0106
:10497000892BE9F490E080E074DDF501D182C082FA
:10498000F30191828082C8010F900F900F900F90D9
:10499000DF91CF911F910F91FF90EF90DF90CF901B
:1049A000BF90AF909F908F907F906F90089590E010
:1049B00080E057DDF50111821082F301118210822F
:1049C000C60131DB09EF1FEFDECF0FEF1FEFDBCFAB
:1049D00006EF1FEFD8CF0097A1F04115510589F0E0
:1049E0002115310571F0F90136966E177F0748F0F1
:1049F000DC012D933C93DA01ED93FC9390E080E091
:104A000008958FEF9FEF0895AF92BF92CF92DF92FC
:104A1000EF92FF920F931F93CF93DF93009709F4C8
:104A20005FC04115510509F45BC06530710508F49C
:104A300057C020911006C7EFDFEF222391F1DC0170
:104A4000CD90DC9011971296ED91FC9196012A5F22
:104A50003F4FC9EFDFEF2617370719F5C091110651
:104A6000D0911206209749F521E030E030931206EC
:104A7000209311067A018C01F0931406E09313063B
:104A80005601B4E0AB0EB11CB50176DE0A0D1B1D5C
:104A9000F801208131818217930729F5D701CD9242
:104AA000DC92CE01DF91CF911F910F91FF90EF909B
:104AB000DF90CF90BF90AF90089520911306309172
:104AC00014062F5F3F4FCCEFDFEFE217F30790F2B2
:104AD000CBEFDFEF2E173F0768F2D0E0C0E0CACF80
:104AE000CFEFDFEFDECFC3EFDFEFDBCF84E090E08F
:104AF000089582E090E008958CEF9FEF089580E2A2
:104B000090E0089510921606109215061092140661
:104B100010921306109212061092110690E080E097
:104B20000895909341028093400208958091100669
:104B3000882391F0C5DD009789F410921606109233
:104B40001506109214061092130610921206109277
:104B5000110610921006089590E080E008950097E5
:104B600049F06115710531F0FC0111821082FB01E1
:104B7000118210820895F3CF26E030E040E855E23C
:104B800060E070E090E080E000C08130910569F065
:104B90001CF4892B39F008958230910549F0039770
:104BA00051F0089584E296E054C781EC96E0FCCF82
:104BB0008EE597E0F9CF8BEF97E0F6CF1F920F923B
:104BC0000FB60F9211240BB60F922F933F934F9372
:104BD0005F936F937F938F939F93AF93BF93EF9365
:104BE000FF9386E997EE9093250180932401BAD034
:104BF000FF91EF91BF91AF919F918F917F916F91B5
:104C00005F914F913F912F910F900BBE0F900FBE70
:104C10000F901F90189586E997EE90932501809349
:104C20002401A3E7B0E08C918E7F8C93E0E2F1E069
:104C300080818C7F8083E1E2F1E08081877E8083C8
:104C400080818460808380818C7F80838C9181606F
:104C50008C930895E3E7F0E0808190819E7F9083BC
:104C60008170089581E0089510921706089568EE06
:104C700073E080E090E0C5D390E080E0089526E006
:104C800030E040E050E16EE070E090E080E07DDFF9
:104C900084E296E014D6892B21F084E296E029D6AE
:104CA000F7CF90E080E00895CF92DF92EF92FF92ED
:104CB0000F931F93CF93DF936B017A01E901198260
:104CC000188284E296E0FBD5892B69F18601CC2419
:104CD000C39482E0D82E80911706811110C084E21F
:104CE00096E007D60297B9F7C0921706F801D1925D
:104CF0008F0188819981019699838883ECCF88817F
:104D000099818E159F0578F484E296E0F2D58F3F65
:104D10009807A9F3F80181938F0188819981019601
:104D200099838883ECCF90E080E0DF91CF911F9151
:104D30000F91FF90EF90DF90CF9008950F931F9306
:104D4000CF93DF93EA01890184E296E00E94B92FB4
:104D5000F801D183C08390E080E0DF91CF911F9173
:104D60000F9108958091180691E0980F909318067E
:104D7000882349F021E030E030931A062093190689
:104D800080931806089578940E946F05F894809196
:104D900018068150F5CF0F931F93CF93DF93109296
:104DA000C3081092C20863D3E7DEC0915602D091C7
:104DB00057021982188268EC70E080E090E00E944F
:104DC000640570E060E090E080E00E94E6030097F8
:104DD00009F042C00E948006F8947894BE016C5598
:104DE0007F4F8A819B810E94E903892B71F46FEFC9
:104DF0007FEFCB010E9478040E945E05882329F092
:104E000081E0FE01E655FF4F8083F89404DF0E94A5
:104E10006105882311F080E00BC00E945E058111BE
:104E2000FACF81E0FE01E655FF4F90819111F3CF5B
:104E30008093C20878940E94DA0D8C017894C6554C
:104E4000DF4F8091C20881110CC00E945B070E9455
:104E50004405F89490E080E0DF91CF911F910F918D
:104E600008950E9442050E9461058823D9F081E0DF
:104E70008093C3089091C30881E0911180E08093F2
:104E8000C2088091C3088111E5DE0130110529F4C3
:104E90000E94DA0D892B09F4E7DE0E94DA0D8C01FD
:104EA000E1DECFCF0E945E058111E1CF81E09881E4
:104EB0009111DECF80E0DCCF5058BB27AA270ED05F
:104EC0000DC1FED030F003D120F031F49F3F11F43A
:104ED0001EF4F3C00EF4E095E7FBE9C0E92F0FD113
:104EE00080F3BA17620773078407950718F071F407
:104EF0009EF527C10EF4E0950B2EBA2FA02D0B01C5
:104F0000B90190010C01CA01A0011124FF27591B0E
:104F100099F0593F50F4503E68F11A16F040A22F14
:104F2000232F342F4427585FF3CF46953795279585
:104F3000A795F0405395C9F77EF41F16BA0B620B84
:104F4000730B840BBAF09150A1F0FF0FBB1F661FCB
:104F5000771F881FC2F70EC0BA0F621F731F841F0E
:104F600048F4879577956795B795F7959E3F08F034
:104F7000B3CF9395880F08F09927EE0F97958795F3
:104F8000089571D008F481E0089504D06894B111B7
:104F9000D9C00895BCD088F09F5790F0B92F9927B9
:104FA000B751A0F0D1F0660F771F881F991F1AF034
:104FB000BA95C9F712C0B13081F0C3D0B1E00895FD
:104FC000C0C0672F782F8827B85F39F0B93FCCF37E
:104FD000869577956795B395D9F73EF4909580952A
:104FE000709561957F4F8F4F9F4F0895E89409C04A
:104FF00097FB3EF490958095709561957F4F8F4F0C
:105000009F4F9923A9F0F92F96E9BB279395F69521
:10501000879577956795B795F111F8CFFAF4BB0F9F
:1050200011F460FF1BC06F5F7F4F8F4F9F4F16C003
:10503000882311F096E911C0772321F09EE8872F8D
:10504000762F05C0662371F096E8862F70E060E049
:105050002AF09A95660F771F881FDAF7880F9695C2
:10506000879597F90895990F0008550FAA0BE0E866
:10507000FEEF16161706E807F907C0F0121613061A
:10508000E407F50798F0621B730B840B950B39F45A
:105090000A2661F0232B242B252B21F408950A26C0
:1050A00009F4A140A6958FEF811D811D089597F900
:1050B0009F6780E870E060E008959FEF80EC0895BE
:1050C00000240A94161617061806090608950024E7
:1050D0000A9412161306140605060895092E039461
:1050E000000C11F4882352F0BB0F40F4BF2B11F4D5
:1050F00060FF04C06F5F7F4F8F4F9F4F089557FD34
:105100009058440F551F59F05F3F71F04795880F35
:1051100097FB991F61F09F3F79F0879508951216CC
:1051200013061406551FF2CF4695F1DF08C0161678
:1051300017061806991FF1CF869571056105089429
:105140000895E894BB2766277727CB0197F9089540
:105150008ADF08F48FEF08950BD0C0CFB1DF28F0BD
:10516000B6DF18F0952309F0A2CFA7CF1124EACF1C
:10517000C6DFA0F3959FD1F3950F50E0551F629FB6
:10518000F001729FBB27F00DB11D639FAA27F00DA0
:10519000B11DAA1F649F6627B00DA11D661F829FC7
:1051A0002227B00DA11D621F739FB00DA11D621FAC
:1051B000839FA00D611D221F749F3327A00D611DC9
:1051C000231F849F600D211D822F762F6A2F1124AB
:1051D0009F5750408AF0E1F088234AF0EE0FFF1FFE
:1051E000BB1F661F771F881F91505040A9F79E3F35
:1051F000510570F05CCFA6CF5F3FECF3983EDCF337
:10520000869577956795B795F795E7959F5FC1F771
:10521000FE2B880F911D9695879597F908959F937A
:1052200005D00F9007FCEE5F28C047CF70DFE8F392
:10523000E894E0E0BB279F57F0F02AED3FE049EC0F
:1052400006C0EE0FBB0F661F771F881F28F0B23A0B
:1052500062077307840728F0B25A620B730B840B42
:10526000E3959A9572F7803830F49A95BB0F661FD4
:10527000771F881FD2F7904813C0EF93E0FF06C056
:10528000A2EA2AED3FE049EC5FEB28DE27DF0F9032
:10529000039401FC9058E4EEF0E00EC09F3F31F023
:1052A000915020F4879577956795B795880F911D54
:1052B0009695879597F908959F938F937F936F9312
:1052C000FF93EF939B01AC0147DFEF91FF9105D076
:1052D0002F913F914F915F913FCFDF93CF931F93DA
:1052E0000F93FF92EF92DF927B018C01689405C0CF
:1052F000DA2EEF013DDFFE01E894A591259135916D
:1053000045915591AEF3EF01E9DDFE019701A8014A
:10531000DA9479F7DF90EF90FF900F911F91CF9182
:10532000DF9108951F920F920FB60F9211242F93C1
:105330003F938F939F93AF93BF9380911C0690915F
:105340001D06A0911E06B0911F0630911B0623E09A
:10535000230F2D3758F50196A11DB11D20931B0673
:1053600080931C0690931D06A0931E06B0931F0603
:105370008091200690912106A0912206B0912306EB
:105380000196A11DB11D8093200690932106A09344
:105390002206B0932306BF91AF919F918F913F91C9
:1053A0002F910F900FBE0F901F90189526E8230F96
:1053B0000296A11DB11DD2CF3FB7F894809120066F
:1053C00090912106A0912206B091230626B5A89BB4
:1053D00005C02F3F19F00196A11DB11D3FBFBA2F87
:1053E000A92F982F8827BC01CD01620F711D811D47
:1053F000911D42E0660F771F881F991F4A95D1F7CC
:1054000008958F929F92AF92BF92CF92DF92EF92C8
:10541000FF926B017C01D0DF4B015C01C114D10410
:10542000E104F104D9F0D2D5C7DF681979098A09F6
:105430009B09683E73408105910580F321E0C21A03
:10544000D108E108F10888EE880E83E0981EA11CBF
:10545000B11CC114D104E104F10431F7FF90EF90C5
:10546000DF90CF90BF90AF909F908F9008957894E9
:1054700084B5826084BD84B5816084BD85B5826059
:1054800085BD85B5816085BDEEE6F0E080818160F7
:105490008083E1E8F0E010828081826080838081F7
:1054A00081608083E0E8F0E0808181608083E1EBCF
:1054B000F0E0808184608083E0EBF0E080818160B7
:1054C0008083E1E9F0E08081826080838081816077
:1054D0008083E0E9F0E0808181608083E1EAF0E0B0
:1054E000808182608083808181608083E0EAF0E057
:1054F000808181608083E1E2F1E08081826080834D
:10550000808181608083E0E2F1E08081816080833E
:10551000EAE7F0E08081846080838081826080831C
:105520008081816080838081806880831092C10047
:105530000895863308F0865320917B00982F987049
:10554000277F922B90937B002091420290E4299F29
:10555000900111248770822B80937C0080917A00C7
:10556000806480937A0080917A0086FDFCCF8091E0
:1055700078009091790008951F93CF93DF93182FAF
:10558000EB0161E033D1209731F460E0812FDF91AE
:10559000CF911F9167C1CF3FD10511F461E0F6CFE4
:1055A000E12FF0E0EE5FFE4FE491E150E23108F0D0
:1055B000B2C0F0E08827E152F54D8F4F39C5F12A8E
:1055C000F92AFE2A082B122B8B2B1C2B242B2C2B7D
:1055D000362B402B4A2B592B632B8B2B6D2B772B88
:1055E000812B84B5806884BDC7BDDF91CF911F91A9
:1055F000089584B5806284BDC8BDF7CF80918000D6
:10560000806880938000D0938900C0938800EDCF9C
:1056100080918000806280938000D0938B00C09343
:105620008A00E3CF80918000886080938000D093CF
:105630008D00C0938C00D9CF8091B000806880939A
:10564000B000C093B300D1CF8091B000806280934E
:10565000B000C093B400C9CF80919000806880935F
:105660009000D0939900C0939800BFCF8091900094
:10567000806280939000D0939B00C0939A00B5CF36
:1056800080919000886080939000D0939D00C0939B
:105690009C00ABCF8091A00080688093A000809197
:1056A000A0008F7B8093A000D093A900C093A80096
:1056B0009CCF8091A00080628093A000D093AB002B
:1056C000C093AA0092CF8091A00088608093A00030
:1056D000D093AD00C093AC0088CF8091200180684A
:1056E00080932001D0932901C09328017ECF80911F
:1056F0002001806280932001D0932B01C0932A0166
:1057000074CF80912001886080932001D0932D0177
:10571000C0932C016ACFC038D1050CF03FCF35CFF4
:105720008150823108F059C0E82FF0E08827E55613
:10573000F44D8F4F7DC4BB2BBF2BAD2BB32BB72BA1
:10574000ED2BC22BC82BCC2BD22BD62BDA2BE02B5C
:10575000E42BED2BE82BEE2BF22B809180008F7742
:10576000809380000895809180008F7DF9CF809193
:105770008000877FF5CF84B58F7784BD089584B589
:105780008F7DFBCF8091B0008F778093B00008951C
:105790008091B0008F7DF9CF809190008F778093BA
:1057A00090000895809190008F7DF9CF80919000B6
:1057B000877FF5CF8091A0008F778093A000089518
:1057C0008091A0008F7DF9CF8091A000877FF5CFD9
:1057D000809120018F77809320010895809120018E
:1057E0008F7DF9CF80912001877FF5CFCF93DF9315
:1057F00090E0FC01E85BFE4F249182579E4FFC0134
:1058000084918823C9F090E0880F991FFC01E25130
:10581000FE4FA591B491FC01EC52FE4FC591D4917D
:1058200061110DC09FB7F8948C91209582238C93C1
:105830008881282328839FBFDF91CF91089562300C
:1058400051F49FB7F8943C91822F809583238C93D9
:10585000E8812E2BEFCF8FB7F894EC912E2B2C9361
:105860008FBFEACF1F93CF93DF93282F30E0F9014A
:10587000EE5FFE4F8491F901E85BFE4FD491F90190
:10588000E257FE4FC491CC23A1F0162F811148DFBF
:10589000EC2FF0E0EE0FFF1FEC52FE4FA591B491FC
:1058A0008FB7F894EC91111108C0D095DE23DC93EA
:1058B0008FBFDF91CF911F910895DE2BF8CFFC01B0
:1058C000918D228D892F90E0805C9F4F821B9109E2
:1058D0008F7399270895FC01918D828D981731F06F
:1058E000828DE80FF11D858D90E008958FEF9FEF79
:1058F0000895FC01918D828D981761F0A28DAE0FF5
:10590000BF2FB11D5D968C91928D9F5F9F73928F7B
:1059100090E008958FEF9FEF0895FC01538D448D23
:10592000252F30E0842F90E0821B930B541710F04A
:10593000CF96089501970895FC01A48DA80FB92F63
:10594000B11DA35ABF4F2C91848D90E001968F73A7
:105950009927848FA689B7892C93A089B1898C91C6
:10596000837080648C93938D848D981306C0028815
:10597000F389E02D80818F7D80830895CF93DF931D
:10598000EC01888D8823B1F0AA89BB89E889F9895F
:105990008C9185FD03C0808186FD0CC00FB607FC8D
:1059A000F7CF8C9185FFF2CF808185FFEDCFCE01BF
:1059B000C3DFEACFDF91CF910895EF92FF920F936B
:1059C0001F93CF93DF93EC0181E0888F9B8D8C8DAB
:1059D00098131AC0E889F989808185FF15C09FB79F
:1059E000F894EE89FF896083E889F9898081837062
:1059F000806480839FBF81E090E0DF91CF911F9111
:105A00000F91FF90EF900895F62E0B8D10E00F5F31
:105A10001F4F0F731127E02E8C8D8E110BC00FB608
:105A200007FCFACFE889F989808185FFF5CFCE019F
:105A300083DFF2CFEB8DEC0FFD2FF11DE35AFF4F0B
:105A4000F0829FB7F8940B8FEA89FB89808180628E
:105A5000D0CFCF92DF92EF92FF921F93CF93DF933D
:105A6000EC016A017B01122FE889F98982E08083C9
:105A7000C11481EED806E104F10499F060E079E008
:105A80008DE390E0A7019601B1D22150310941097F
:105A900051095695479537952795211580E1380787
:105AA00090F0E889F989108260E874E88EE190E06E
:105AB000A70196019BD22150310941095109569500
:105AC000479537952795EC85FD853083EE85FF85D5
:105AD0002083188EEC89FD891083EA89FB898081F7
