:1000000005C1000034C1000032C1000030C1000051
:100010002EC100002CC100002AC1000028C1000030
:1000200026C1000024C1000022C1000020C1000040
:100030001EC100001CC100001AC1000018C1000050
:1000400016C1000014C1000012C1000010C1000060
:100050000EC100000CC100000AC100000C94CB20AE
:1000600006C100000C94E12A0C94112B00C1000081
:10007000FEC00000FCC00000FAC00000F8C0000094
:10008000F6C00000F4C00000F2C00000F0C00000A4
:100090000C94882B0C94B82BEAC00000E8C0000038
:1000A000E6C00000E4C00000E2C00000E0C00000C4
:1000B000DEC00000DCC00000DAC00000D8C00000D4
:1000C000D6C00000D4C000000C94A71D0C942F2CA7
:1000D0000C945F2CCCC000000C94D62C0C94062DF4
:1000E000C6C0000000002100240027002A002D00C7
:1000F0003000330001010000040107010A01000083
:100100002200250028002B002E00310034000201BF
:100110000000050108010B0100002000230026005B
:1001200029002C002F00320000010000030106010D
:10013000090105050505070508080808020202026D
:100140000A0A080804040404010101010101010173
:100150000303030303030303040707070C0C0C0C3E
:100160000C0C0C0C02020202060606060606060627
:100170000B0B0B0B0B0B0B0B0102102020080810B4
:100180002040102040800201020108040201010207
:1001900004081020408080402010080402018004E0
:1001A000020180402010080402010804020101023B
:1001B0000408102040800102040810204080000044
:1001C0000A0B02090C0D0E080703040100000000D1
:1001D000000000000000000000000000000000001F
:1001E00000000000000000000000121110000000DC
:1001F00000000000000000000000000000000000FF
:10020000000000007C2B232CCA2C732D11241FBE50
:10021000CFEFD1E2DEBFCDBF00E00CBF12E0A0E027
:10022000B2E0EEEFFBE500E00BBF02C007900D92DD
:10023000A03BB107D9F726E0A0EBB2E001C01D92C8
:10024000AE3AB207E1F711E0C6E0D1E000E006C047
:1002500021970109802FFE010E94F12DC230D107A4
:1002600080E00807A9F70E94521E0C94FD2DC8CE0D
:10027000CF93DF9300D01F92CDB7DEB769837A8327
:100280008B839C8389819A81AB81BC81C697A105B0
:10029000B10530F489818A5C60E00E94FD2304C0CE
:1002A000898160E00E94FD2389819A8101969C01E9
:1002B00089819A81AB81BC81A901BC01CD01B1D0FA
:1002C00089819A8101960F900F900F900F90DF9186
:1002D000CF910895CF93DF9300D000D000D0CDB759
:1002E000DEB79D838C837F836E8359874887CE01D9
:1002F0000496FC018081882399F0CE010496FC01CC
:1003000080818150898389810E941C229B838A83FA
:100310002A813B818E819F81FC013183208305C02E
:100320008E819F81FC0111821082000029960FB6F8
:10033000F894DEBF0FBECDBFDF91CF910895CF936C
:10034000DF9300D0CDB7DEB79B838A83CE010296C0
:10035000FC018081882389F01982CE010296FC017C
:100360008081815089838981882F90E0A0E0B0E06E
:1003700040E050E0BC01CD0154D000000F900F9040
:100380000F90DF91CF910895CF93DF9300D000D0ED
:1003900000D0CDB7DEB76E837F83888799871C82B4
:1003A0001B821A8219821D828E819F81A885B98540
:1003B000689412F8B695A795979587951694D1F7F6
:1003C0009C838B838E8187708D838B819C818055EC
:1003D0009D4FFC0140818D81282F30E081E090E02D
:1003E00002C0880F991F2A95E2F78423882F90E096
:1003F0009A83898389819A81892B31F08E819F81AB
:1004000001969A83898302C01A82198289819A810E
:1004100029960FB6F894DEBF0FBECDBFDF91CF9106
:100420000895CF93DF9300D000D000D01F92CDB7B6
:10043000DEB76D837E838F8398875A8749871A82B8
:1004400019821B821C828D819E81AF81B885689440
:1004500012F8B695A795979587951694D1F79A8334
:1004600089838D8187708B838B81282F30E081E099
:1004700090E002C0880F991F2A95E2F78C83898546
:100480009A85892B99F48C8180958C8389819A81B6
:1004900080559D4FFC0190818C81292F28238981D3
:1004A0009A8180559D4FFC0120830FC089819A81DC
:1004B00080559D4FFC0190818C81292F282B8981AB
:1004C0009A8180559D4FFC01208300002A960FB62B
:1004D000F894DEBF0FBECDBFDF91CF910895CF93CB
:1004E000DF931F921F92CDB7DEB789836A838A811B
:1004F000882329F460E089810E94FD230CC08A8151
:10050000813029F461E089810E94FD2304C062E00A
:1005100089810E94FD2300000F900F90DF91CF9101
:100520000895CF93DF931F921F92CDB7DEB78983D3
:100530006A838A81882329F061E089810E949C2551
:1005400004C060E089810E949C2500000F900F90FC
:10055000DF91CF910895CF93DF931F921F92CDB774
:10056000DEB78A838A810E942426019711F481E0F4
:1005700001C080E0898389810F900F90DF91CF9136
:100580000895EF92FF920F931F93CF93DF93CDB710
:10059000DEB72C970FB6F894DEBF0FBECDBF6983D0
:1005A0007A838B839C832D833E834F835887E98690
:1005B000FA860B871C87898161E00E94FD2389816F
:1005C0009A8101969C0189819A81AB81BC81A901A4
:1005D000BC01CD01F8D020E030E0A90169857A8521
:1005E0008B859C850E9464201816BCF469857A85E9
:1005F0008B859C850E94861FDC01CB018C016D815F
:100600007E818F8198850E94861FDC01CB019C0131
:1006100089819A81A801B90155D189819A81019670
:100620002C960FB6F894DEBF0FBECDBFDF91CF91F1
:100630001F910F91FF90EF900895CF93DF9300D01B
:1006400000D01F92CDB7DEB79B838A834C835D8336
:100650006E837F83CE010296FC0180818823B9F1ED
:10066000CE010296FC0180818150898320E030E038
:10067000A9016C817D818E819F810E94151F882335
:10068000D4F48C819D81AE81BF81B0588C839D83D1
:10069000AE83BF836C817D818E819F810E94861F86
:1006A0009B01AC018981882F90E0A0E0B0E0BC0103
:1006B000CD01E7D00CC06C817D818E819F810E942D
:1006C000811FDC01CB01BC0189810E9483220000D3
:1006D00027960FB6F894DEBF0FBECDBFDF91CF9146
:1006E0000895CF93DF9300D0CDB7DEB79B838A8385
:1006F000CE010296FC018081882389F01982CE0107
:100700000296FC018081815089838981882F90E045
:10071000A0E0B0E040E050E0BC01CD0154D00000CA
:100720000F900F900F90DF91CF910895CF93DF93AB
:1007300000D000D000D0CDB7DEB76E837F8388872E
:1007400099871C821B821A8219821D828E819F8149
:10075000A885B985689412F8B695A7959795879559
:100760001694D1F79C838B838E8187708D838B81C8
:100770009C8187549D4FFC0140818D81282F30E062
:1007800081E090E002C0880F991F2A95E2F7842348
:10079000882F90E09A83898389819A81892B31F00F
:1007A0008E819F8101969A83898302C01A82198261
:1007B00089819A8129960FB6F894DEBF0FBECDBF0E
:1007C000DF91CF910895CF93DF9300D000D000D078
:1007D0001F92CDB7DEB76D837E838F8398875A874C
:1007E00049871A8219821B821C828D819E81AF816A
:1007F000B885689412F8B695A7959795879516943D
:10080000D1F79A8389838D8187708B838B81282F81
:1008100030E081E090E002C0880F991F2A95E2F74E
:100820008C8389859A85892B99F48C8180958C831A
:1008300089819A8187549D4FFC0190818C81292F59
:10084000282389819A8187549D4FFC0120830FC002
:1008500089819A8187549D4FFC0190818C81292F39
:10086000282B89819A8187549D4FFC0120830000A9
:100870002A960FB6F894DEBF0FBECDBFDF91CF91A1
:100880000895CF93DF9300D000D01F921F92CDB771
:10089000DEB769837A838B839C832D833E834F836A
:1008A00058878D819E812981BC01822F0E948322DD
:1008B000000028960FB6F894DEBF0FBECDBFDF91C3
:1008C000CF910895CF93DF9300D000D000D0CDB763
:1008D000DEB79D838C837F836E83598748878C81A5
:1008E0009D8182549E4F9A83898389819A81FC01DC
:1008F00084918B838B81882F90E0092E000CAA0BAA
:10090000BB0B0197A109B10982319105A105B10580
:1009100008F051C2FC018827EF56FB4F8F4F0C9413
:10092000F12DA304AD04B704E1040B05DB06350586
:100930004B0561058B05B505DF0509063306DB06AA
:100940005D068706B10684E490E0FC01208184E422
:1009500090E02068FC0120832EC284E490E0FC013A
:10096000208184E490E02062FC01208324C280E89E
:1009700090E0FC018081282F2C7F80E890E02260AD
:10098000FC01208381E890E0FC018081982F907E1B
:100990008E81292F282B81E890E02061FC012083A3
:1009A00086E890E028853985FC013183208380E842
:1009B00090E0FC01208180E890E02068FC01208329
:1009C000FAC180E890E0FC018081282F2C7F80E82C
:1009D00090E02260FC01208381E890E0FC018081AE
:1009E000982F907E8E81292F282B81E890E020611E
:1009F000FC01208386E890E028853985FC0131835D
:100A0000208380E890E0FC01208180E890E0206273
:100A1000FC012083D0C180E890E0FC018081282F78
:100A20002C7F80E890E02260FC01208381E890E048
:100A3000FC018081982F907E8E81292F282B81E8C0
:100A400090E02061FC01208386E890E028853985CC
:100A5000FC013183208380E890E0FC01208180E864
:100A600090E02860FC012083A6C180EB90E0FC01AF
:100A7000208180EB90E02068FC01208381EB90E0F6
:100A8000FC018081382F387F2E8181EB90E0232B71
:100A9000FC01208390C180EB90E0FC01208180EB81
:100AA00090E02062FC01208381EB90E0FC018081DA
:100AB000382F387F2E8181EB90E0232BFC0120839F
:100AC0007AC180E990E0FC018081282F2C7F80E9A9
:100AD00090E02260FC01208381E990E0FC018081AC
:100AE000982F907E8E81292F282B81E990E020611C
:100AF000FC01208386E990E028853985FC0131835B
:100B0000208380E990E0FC01208180E990E020686A
:100B1000FC01208350C180E990E0FC018081282FF6
:100B20002C7F80E990E02260FC01208381E990E045
:100B3000FC018081982F907E8E81292F282B81E9BE
:100B400090E02061FC01208386E990E028853985CA
:100B5000FC013183208380E990E0FC01208180E961
:100B600090E02062FC01208326C180E990E0FC0136
:100B70008081282F2C7F80E990E02260FC01208377
:100B800081E990E0FC018081982F907E8E81292F51
:100B9000282B81E990E02061FC01208386E990E028
:100BA00028853985FC013183208380E990E0FC01B0
:100BB000208180E990E02860FC012083FCC080EA6D
:100BC00090E0FC018081282F2C7F80EA90E0226059
:100BD000FC01208381EA90E0FC018081982F907EC7
:100BE0008E81292F282B81EA90E02061FC0120834F
:100BF00086EA90E028853985FC013183208380EAEC
:100C000090E0FC01208180EA90E02068FC012083D4
:100C1000D2C080EA90E0FC018081282F2C7F80EAFE
:100C200090E02260FC01208381EA90E0FC01808159
:100C3000982F907E8E81292F282B81EA90E02061C9
:100C4000FC01208386EA90E028853985FC01318308
:100C5000208380EA90E0FC01208180EA90E020621D
:100C6000FC012083A8C080EA90E0FC018081282F4D
:100C70002C7F80EA90E02260FC01208381EA90E0F2
:100C8000FC018081982F907E8E81292F282B81EA6C
:100C900090E02061FC01208386EA90E02885398578
:100CA000FC013183208380EA90E0FC01208180EA0E
:100CB00090E02860FC0120837EC080E291E0FC018E
:100CC0008081282F2C7F80E291E02260FC0120832C
:100CD00081E291E0FC018081982F907E8E81292F06
:100CE000282B81E291E02061FC01208386E291E0E3
:100CF00028853985FC013183208380E291E0FC0165
:100D0000208180E291E02068FC01208354C080E2D1
:100D100091E0FC018081282F2C7F80E291E022600D
:100D2000FC01208381E291E0FC018081982F907E7C
:100D30008E81292F282B81E291E02061FC01208304
:100D400086E291E028853985FC013183208380E2A9
:100D500091E0FC01208180E291E02062FC0120838F
:100D60002AC080E291E0FC018081282F2C7F80E264
:100D700091E02260FC01208381E291E0FC0180810E
:100D8000982F907E8E81292F282B81E291E020617F
:100D9000FC01208386E291E028853985FC013183BE
:100DA000208380E291E0FC01208180E291E02860D4
:100DB000FC01208300008C8160E00E949C250000E3
:100DC00029960FB6F894DEBF0FBECDBFDF91CF914D
:100DD0000895CF93DF931F921F92CDB7DEB79A830A
:100DE000898389819A81FC01108200000F900F9005
:100DF000DF91CF910895CF93DF9300D01F921F9280
:100E0000CDB7DEB789837B836A835D834C838C8116
:100E10009D81FC01808191818F3F914060F48C81A4
:100E20009D81FC018081918101969C018C819D8135
:100E3000FC01318320838C819D81FC018381882387
:100E400059F48C819D8121E0FC0123838C819D815B
:100E500022E0FC01228350C08C819D81FC018281B3
:100E6000882F90E082309105B9F08330910511F11F
:100E7000019751F58C819D81FC0180819181843F96
:100E80009140A8F18C819D8123E0FC0122838A811D
:100E90009B81FC0110822BC08981882351F18C81B8
:100EA0009D8124E0FC0122838A819B8121E0FC0159
:100EB00020831FC08A819B81FC0110828C819D81CF
:100EC00022E0FC01228318C08A819B8121E0FC0181
:100ED00020838981882379F48C819D8121E0FC0124
:100EE00022838C819D81FC011182108204C000004C
:100EF00003C0000001C0000000000F900F900F9091
:100F00000F900F90DF91CF910895CF93DF93CDB7DE
:100F1000DEB780915305882321F080915D058823F9
:100F200039F480915305882319F081E090E002C0E4
:100F300080E090E0809353050000DF91CF91089509
:100F4000CF93DF9300D01F92CDB7DEB769837A834A
:100F50008B839C8380915D05882369F489819A81C4
:100F6000AB81BC8180934A0590934B05A0934C05BF
:100F7000B0934D0508C010924A0510924B0510928F
:100F80004C0510924D0500000F900F900F900F90A0
:100F9000DF91CF910895CF93DF9300D000D000D0A0
:100FA000CDB7DEB79B838A837D836C835F834E835B
:100FB0003987288719828A819B81FC0180819181F0
:100FC000039774F41092800683E080937F0682E09A
:100FD00090E090934F0580934E0510925105FFC00D
:100FE0008A819B81FC0180819181049721F4809109
:100FF0005805882349F58A819B81FC018081918174
:101000000497A9F58E819F81FC0180819181A28145
:10101000B3812BEA3AEA4AEA5EE3BC01CD010E94C1
:101020006420181624F588859985FC0180819181BA
:10103000A281B38120E030E044EB52E4BC01CD0159
:101040000E94642018169CF482E080937F0683E05F
:1010500090E090934F0580934E05109251051092A9
:1010600057051092540581E080938006B8C08A81AC
:101070009B81FC0180819181049711F58E819F8174
:10108000FC0180819181A281B3812BEA3AEA4AEA8C
:101090005EE3BC01CD010E94642018168CF410920E
:1010A000800681E080937F0684E090E090934F0576
:1010B00080934E051092510581E0809381068FC088
:1010C0008E819F81FC0180819181A281B3812091D9
:1010D0000002309101024091020250910302BC01D2
:1010E000CD010E946820DC01CB01809346059093DE
:1010F0004705A0934805B093490507DF8091800616
:10110000882F90E0019709F58C819D81FC018081F9
:101110009181A281B381BF7720E030E040E05FE3BE
:10112000BC01CD010E94151F181664F080915D0569
:10113000882341F080915805882321F482E0809330
:1011400080064DC0109250054AC019828E819F8141
:10115000FC0180819181A281B38120E030E0A9016E
:10116000BC01CD010E94151F882339F080915D05D7
:10117000882319F481E0898329C08C819D81FC0139
:1011800080819181A281B38120E030E040E850E489
:10119000BC01CD010E946420181634F481E08093D4
:1011A000530581E0898312C080915805882331F06E
:1011B00081E08093530581E0898308C081E08093BA
:1011C000510560E070E080E490E4BADE8981882314
:1011D00029F01092510581E0809380060000000004
:1011E00029960FB6F894DEBF0FBECDBFDF91CF9129
:1011F0000895CF93DF93CDB7DEB780917F06882F18
:1012000090E08130910519F0029781F01DC0809126
:101210008106833031F481E080935105109281067C
:1012200002C01092810610927F0611C08091800644
:10123000823029F4109251051092800602C010925B
:10124000800610927F0603C010927F060000000007
:10125000DF91CF910895CF92DF92EF92FF920F939B
:101260001F93CF93DF9300D000D000D01F92CDB753
:10127000DEB79A8389837C836B835E834D83388753
:101280002F831A87098710925605109255051092E0
:10129000520589859A85FC018081882391F0A9DF18
:1012A00081E080937E06109250051092510581E0F6
:1012B0008093560581E08093550582E080938206F5
:1012C000CEC289819A81FC018081918199230CF49D
:1012D0004EC08B819C81FC0180819181A281B38170
:1012E000209148023091490240914A0250914B02AC
:1012F000BC01CD010E9464201816CCF18B819C8129
:10130000FC01E080F1800281138180914402909180
:101310004502A0914602B0914702B0589C01AD0130
:10132000C801B7010E94151F88230CF18D819E8191
:10133000FC0180819181A281B38120E030E040E80E
:101340005FE3BC01CD010E946420181684F08D81FA
:101350009E81FC0180819181A281B38120E030E0F7
:10136000A901BC01CD010E94151F88237CF441DF37
:1013700082E080937E0681E08093520510925105B1
:101380001092500581E08093830669C280917F06A8
:10139000882F90E08230910509F47BC1833091055C
:1013A0001CF4019749F027C28330910509F47BC1F1
:1013B000049709F4FEC11FC289819A81FC018081D2
:1013C0009181049721F4809158058823A9F0109207
:1013D000810682E080937F0683E090E090934F0542
:1013E00080934E05109251051092570510925405A6
:1013F00081E0809380064CC188DD80918106882F32
:1014000090E08130910521F0029709F458C0CAC0DC
:101410008D819E81FC0180819181A281B3812BEA23
:101420003AEA4AEA5EE3BC01CD010E94151F882317
:1014300024F482E0809381062BC180910002909178
:101440000102A0910202B091030220E030E040E4EA
:1014500050E4BC01CD010E946820DC01CB0120E0FA
:1014600030E040E050E4BC01CD010E94191FDC01D6
:10147000CB016C017D018D819E81FC018081918178
:10148000A281B3812BEA3AEA4AEA5EE3BC01CD01CC
:101490000E94B01EDC01CB019C01AD01C701B60169
:1014A0000E946820DC01CB0180934605909347059C
:1014B000A0934805B093490510925005E9C08D816D
:1014C0009E81FC0180819181A281B3812BEA3AEA5D
:1014D0004AEA5EE3BC01CD010E946420882324F027
:1014E00081E080938106D4C08B819C81FC01808146
:1014F0009181A281B381BF7720E030E040E05FE3DB
:10150000BC01CD010E94151F181644F080915D05A5
:10151000882321F083E080938106BAC08D819E816B
:10152000FC0180819181A281B38120E030E040E420
:1015300050E4BC01CD010E946820DC01CB019C017C
:10154000AD0160E070E080E89FE30E94B01EDC0126
:10155000CB017C018D018091040290910502A09144
:101560000602B0910702B0589C01AD01C801B70155
:101570000E946820DC01CB018093460590934705CB
:10158000A0934805B093490510924A0510924B0567
:1015900010924C0510924D051092530581E08093F6
:1015A000500576C08D819E81FC0180819181A28150
:1015B000B3812BEA3AEA4AEA5EE3BC01CD010E941C
:1015C000642088235CF080915D05882339F481E0F4
:1015D0008093510581E08093810659C08B819C8165
:1015E000FC0180819181A281B38120E030E040E85C
:1015F00050E4BC01CD010E946420181654F481E02F
:101600008093530581E08093510582E080938106A9
:101610003EC08D819E81FC0180819181A281B38138
:1016200020E030E040E450E4BC01CD010E9468209D
:10163000DC01CB019C01AD0160E070E080E89FE33C
:101640000E94B01EDC01CB017C018D018091000263
:1016500090910102A0910202B0910302B0589C0146
:10166000AD01C801B7010E946820DC01CB01809365
:10167000460590934705A0934805B093490581E03E
:101680008093510560E070E080E490E459DC000054
:10169000E6C02F8138854D815E816B817C81898197
:1016A0009A8179DCDCC089819A81FC0180819181F9
:1016B000039744F180915D05882321F18B819C8102
:1016C000FC0180819181A281B38120E030E040EA79
:1016D00050ECBC01CD010E94642018169CF482E0FD
:1016E00080937F0683E090E090934F0580934E05B2
:1016F00010925105109257051092540581E0809385
:10170000800656C089819A81FC0180819181892B54
:10171000F1F480915D058823D1F08B819C81FC01DF
:1017200080819181A281B381BF7720E030E040EADF
:1017300050E4BC01CD010E94151F181644F084E04E
:1017400080937F0610924F0510924E0531C089811B
:101750009A81FC01808191810197F9F480915D0566
:101760008823D9F08B819C81FC0180819181A281A9
:10177000B38120E030E040EA50E4BC01CD010E949A
:10178000151F181654F085E080937F0681E090E0E5
:1017900090934F0580934E050BC010924605109212
:1017A000470510924805109249051092500557C000
:1017B00056C089819A81FC0180819181892B81F0B9
:1017C00080915D05882361F083E080937F0682E04D
:1017D00090E090934F0580934E05109251053FC0C5
:1017E0001092500510924605109247051092480538
:1017F0001092490534C089819A81FC0180819181D0
:10180000019761F083E080937F0682E090E09093FF
:101810004F0580934E051092510520C08D819E8109
:10182000FC0180819181A281B381B0582091040292
:10183000309105024091060250910702BC01CD0192
:101840000E946820DC01CB018093460590934705F8
:10185000A0934805B0934905109250050000000080
:101860002A960FB6F894DEBF0FBECDBFDF91CF91A1
:101870001F910F91FF90EF90DF90CF9008958F927E
:101880009F92AF92BF92CF92DF92EF92FF920F930F
:101890001F93CF93DF93CDB7DEB7A5970FB6F8941C
:1018A000DEBF0FBECDBF1D82809172059091730582
:1018B000A0917405B09175052091500230915102AC
:1018C0004091520250915302BC01CD010E94151F5C
:1018D000882381F08091500290915102A091520290
:1018E000B09153028093720590937305A093740591
:1018F000B09375058AE695E09B878A8767E370E079
:1019000080E090E00E94C4019C018A859B85FC01D7
:101910003783268383E090E09D878C8780917005D4
:10192000909171054C855D859E012F5D3F4FB901FA
:101930000E946A01C0905802D0905902E0905A0269
:10194000F0905B0289A19AA1CC01A0E0B0E0BC01BB
:10195000CD010E94B21FDC01CB019C01AD01C7018A
:10196000B6010E946820DC01CB018D8B9E8BAF8B72
:10197000B88F80917E0590917F05A0918005B091F0
:10198000810520914C0230914D0240914E025091C0
:101990004F02BC01CD010E94151F882381F0809168
:1019A0004C0290914D02A0914E02B0914F02809353
:1019B0007E0590937F05A0938005B093810586E70F
:1019C00095E09B878A8766E370E080E090E00E9464
:1019D000C4019C018A859B85FC013783268383E0B3
:1019E00090E09D878C8780917C0590917D054C854A
:1019F0005D859E012F5D3F4FB9010E946A01C09035
:101A00005C02D0905D02E0905E02F0905F0289A1DE
:101A10009AA1CC01A0E0B0E0BC01CD010E94B21FB0
:101A2000DC01CB019C01AD01C701B6010E94682019
:101A3000DC01CB01898F9A8FAB8FBC8F80916605BB
:101A400090916705A0916805B091690520915402B5
:101A5000309155024091560250915702BC01CD0180
:101A60000E94151F882381F08091540290915502A5
:101A7000A0915602B0915702809366059093670536
:101A8000A0936805B09369058EE595E09B878A87EA
:101A900068E370E080E090E00E94C4019C018A85C8
:101AA0009B85FC013783268383E090E09D878C87AC
:101AB00080916405909165054C855D859E012F5D43
:101AC0003F4FB9010E946A01C0906002D09061024C
:101AD000E0906202F090630289A19AA1CC01A0E09B
:101AE000B0E0BC01CD010E94B21FDC01CB019C0122
:101AF000AD01C701B6010E946820DC01CB018D8FCA
:101B00009E8FAF8FB8A381E08BA38D899E89AF890B
:101B1000B88D298D3A8D4B8D5C8DBC01CD010E9415
:101B2000151F8823C1F4898D9A8DAB8DBC8D2D8DA9
:101B30003E8D4F8D58A1BC01CD010E94151F8823F9
:101B400051F48D899E89AF89B88D8D8F9E8FAF8F0F
:101B5000B8A31BA22DC08D899E89AF89B88D298D10
:101B60003A8D4B8D5C8DBC01CD010E94151F8823E1
:101B700049F48D899E89AF89B88D8D8F9E8FAF8FE7
:101B8000B8A316C0898D9A8DAB8DBC8D2D8D3E8DE1
:101B90004F8D58A1BC01CD010E94151F882341F42F
:101BA000898D9A8DAB8DBC8D8D8F9E8FAF8FB8A395
:101BB0008091020690910306A0910406B09105065B
:101BC00020911C0230911D0240911E0250911F0273
:101BD000BC01CD010E94151F882381F080911C0259
:101BE00090911D02A0911E02B0911F0280930206E7
:101BF00090930306A0930406B093050680E30E9429
:101C0000AB0280935D058091C6059091C705A091B8
:101C1000C805B091C9052091300230913102409140
:101C2000320250913302BC01CD010E94151F88235E
:101C300081F08091300290913102A0913202B091F6
:101C400033028093C6059093C705A093C805B0934F
:101C5000C90586E10E94AB028E878091AE05909106
:101C6000AF05A091B005B091B10520913802309137
:101C7000390240913A0250913B02BC01CD010E94D1
:101C8000151F882381F08091380290913902A0912C
:101C90003A02B0913B028093AE059093AF05A093BA
:101CA000B005B093B10588E10E94AB0289878091AD
:101CB000D2059091D305A091D405B091D50520917E
:101CC0002C0230912D0240912E0250912F02BC0126
:101CD000CD010E94151F882381F080912C029091E4
:101CE0002D02A0912E02B0912F028093D2059093E5
:101CF000D305A093D405B093D5058AE10E94AB0229
:101D000088878091DE059091DF05A091E005B09174
:101D1000E105209128023091290240912A02509138
:101D20002B02BC01CD010E94151F882381F08091F8
:101D3000280290912902A0912A02B0912B0280934F
:101D4000DE059093DF05A093E005B093E1058CE1FB
:101D50000E94AB028F838091F6059091F705A091C8
:101D6000F805B091F90520912002309121024091AF
:101D7000220250912302BC01CD010E94151F88232D
:101D800081F08091200290912102A0912202B091D5
:101D900023028093F6059093F705A093F805B0937E
:101DA000F9058EE10E94AB028E8381E0988599232C
:101DB00009F080E08F8781E09F81992309F080E01E
:101DC000888B81E09E81992309F080E0898B81E0F6
:101DD0009985992309F080E08A8B8E85882379F094
:101DE0008A89882361F08F85882349F08889882330
:101DF00031F08989882319F01DA21CA263C081E0FB
:101E00009E85992309F080E08E878E85882389F04E
:101E10008985882371F08F85882359F088898823E4
:101E200041F08989882329F081E090E09DA38CA36B
:101E300049C08E85882331F08A89882319F081E092
:101E400090E002C080E090E08A8B8A89882371F05C
:101E50008885882359F08889882341F089898823D7
:101E600029F082E090E09DA38CA32CC08A8988236E
:101E700031F08F85882319F081E090E002C080E086
:101E800090E08F878F85882359F08F81882341F0D8
:101E90008989882329F083E090E09DA38CA312C058
:101EA0008F85882359F08889882341F08E81882383
:101EB00029F084E090E09DA38CA304C08FEF9FEFF6
:101EC0009DA38CA38091EA059091EB05A091EC0570
:101ED000B091ED0520912402309125024091260217
:101EE00050912702BC01CD010E94151F882381F06B
:101EF0008091240290912502A0912602B0912702A0
:101F00008093EA059093EB05A093EC05B093ED0563
:101F100082E30E94AB028E87809187068F3128F47E
:101F2000809187068F5F809387068091860688233D
:101F300059F481E08093860683E0809385061092B1
:101F40005905109258053AC080918506882F90E077
:101F50008130910519F0029741F020C081E0809313
:101F6000590581E08093580529C08E85882341F06A
:101F700083E08093850610925905109258051BC086
:101F8000809187068E31B8F081E08093850681E0EC
:101F90008093590581E0809358050DC01092590532
:101FA000109258058E85882341F482E0809385063F
:101FB0001092870602C0000001C0000080918A05CF
:101FC00090918B05A0918C05B0918D0520914002D8
:101FD000309141024091420250914302BC01CD0137
:101FE0000E94151F882381F0809140029091410248
:101FF000A0914202B091430280938A0590938B0591
:10200000A0938C05B0938D0582E895E09B878A8725
:1020100065E470E080E090E00E94C4019C018A8544
:102020009B85FC013783268383E090E09D878C8726
:1020300080918805909189054C855D859E012F5D75
:102040003F4FB9010E946A018091A2059091A305BA
:10205000A091A405B091A50520913C0230913D02CC
:1020600040913E0250913F02BC01CD010E94151FDC
:10207000882381F080913C0290913D02A0913E0224
:10208000B0913F028093A2059093A305A093A4056D
:10209000B093A50584E30E94AB028E878E858823CA
:1020A00051F189A19AA1CC01A0E0B0E0BC01CD0121
:1020B0000E94B21F7B018C018091640290916502A5
:1020C000A0916602B09167029C01AD01C801B70101
:1020D0000E946820DC01CB0120E030E040EA50E4BF
:1020E000BC01CD010E94191FDC01CB018D8B9E8BA1
:1020F000AF8BB88F28C089A19AA1CC01A0E0B0E035
:10210000BC01CD010E94B21FDC01CB01B05820916F
:1021100068023091690240916A0250916B02BC01E1
:10212000CD010E946820DC01CB0120E030E040EAD4
:1021300050E4BC01CD010E94191FDC01CB018D8B45
:102140009E8BAF8BB88F8091960590919705A0914B
:102150009805B0919905209118023091190240918B
:102160001A0250911B02BC01CD010E94151F882349
:1021700081F08091180290911902A0911A02B091F9
:102180001B028093960590939705A0939805B093B2
:1021900099058EE895E09B878A876EE370E080E082
:1021A00090E00E94C4019C018A859B85FC013783D5
:1021B000268383E090E09D878C87809194059091A1
:1021C00095054C855D859E012F5D3F4FB9010E94AD
:1021D0006A01C0906C02D0906D02E0906E02F090A7
:1021E0006F0289A19AA1CC01A0E0B0E0BC01CD01B1
:1021F0000E94B21FDC01CB019C01AD01C701B601F9
:102200000E946820DC01CB01898F9A8FAB8FBC8F35
:102210008091BA059091BB05A091BC05B091BD0518
:1022200020913402309135024091360250913702AC
:10223000BC01CD010E94151F882381F080913402DA
:1022400090913502A0913602B09137028093BA0581
:102250009093BB05A093BC05B093BD0585E10E949A
:10226000AB028E87809184068823C1F481E080933D
:10227000840683E080937E061092560510925505E1
:102280001092520583E080937F0682E090E0909365
:102290004F0580934E0510925105A9C11D82809172
:1022A0007E06882F90E08130910521F0029709F495
:1022B0004DC180C181E08093560581E08093550532
:1022C0008E858823B9F01092820683E080937E0683
:1022D00010925605109255051092520583E0809396
:1022E0007F0682E090E090934F0580934E05109218
:1022F000510571C180918206882F90E0823091054E
:10230000C9F1833091051CF4019749F0F4C0833082
:10231000910509F46CC0049709F4D2C0ECC08CA1FB
:102320009DA1039754F483E08093820682E090E0BD
:1023300090934F0580934E0508C180917606909149
:102340007706A0917806B09179062D8D3E8D4F8D40
:1023500058A1BC01CD010E946820DC01CB01809313
:10236000460590934705A0934805B0934905109200
:102370005705EBC080914E0590914F05892B41F494
:1023800084E08093820610924F0510924E05DDC0C6
:1023900080914E0590914F05019751F485E080930F
:1023A000820681E090E090934F0580934E05CDC06A
:1023B00080914E0590914F05049731F481E0809310
:1023C000570581E08D83C1C080914E0590914F05E6
:1023D000039719F481E08D83B8C083E0809382066F
:1023E00082E090E090934F0580934E05AEC08CA1A3
:1023F0009DA1892BD9F480915D058823B9F0898D41
:102400009A8DAB8DBC8DBF7720E030E040EA50E480
:10241000BC01CD010E94151F181644F084E0809382
:10242000820610924F0510924E0549C08CA19DA1C5
:102430000397E4F080915D058823C1F0898D9A8D22
:10244000AB8DBC8D20E030E040EA50ECBC01CD010A
:102450000E946420181654F481E08093820683E081
:1024600090E090934F0580934E0529C08CA19DA1CB
:102470000197E1F480915D058823C1F0898D9A8DE3
:10248000AB8DBC8D20E030E040EA50E4BC01CD01D2
:102490000E94151F181654F085E08093820681E093
:1024A00090E090934F0580934E0509C01092460529
:1024B00010924705109248051092490546C045C044
:1024C0008CA19DA1892B71F080915D05882351F02D
:1024D00083E08093820682E090E090934F058093A2
:1024E0004E0533C0109246051092470510924805DC
:1024F000109249052AC08CA19DA1019751F083E05B
:102500008093820682E090E090934F0580934E0581
:102510001BC08D8D9E8DAF8DB8A1B05820917606D1
:10252000309177064091780650917906BC01CD0133
:102530000E946820DC01CB018093460590934705FB
:10254000A0934805B0934905000045C081E0809301
:1025500052058E858823B9F01092830683E080931C
:102560007E0610925605109255051092520583E092
:1025700080937F0682E090E090934F0580934E0514
:102580001092510528C080918306813051F482E079
:102590008093830682E090E090934F0580934E05F0
:1025A0001AC01092460510924705109248051092E5
:1025B000490511C0FE01B3969E012B5E3F4FAE014F
:1025C000435E5F4FBE01675E7F4FCE0184968F01F1
:1025D0000E942B0900008D81882349F081E08093BF
:1025E000820683E090E090934F0580934E051BA2F6
:1025F000198618861F821E8280914E0590914F0584
:1026000082309105A1F0833091052CF4009749F0B8
:10261000019751F015C08330910561F0049769F07E
:102620000FC081E08BA30CC081E0898709C081E0E5
:10263000888706C081E08F8303C081E08E8300001D
:102640006E818FE10E9491026F818DE10E94910263
:1026500068858BE10E9491028BA1682F87E10E941F
:102660009102698589E10E94910280915205682F4B
:1026700083E30E9491028091530540E956E06CE5A6
:1026800075E00E94FB0680915C05682F81E30E9443
:102690009102809154054CE856E06BE575E00E948C
:1026A000FB0680915B05682F8FE20E94910280916A
:1026B0005505682F8DE20E94910280915605682F82
:1026C0008BE20E9491028091570548E856E06AE546
:1026D00075E00E94FB0680915A05682F89E20E94EE
:1026E000910280914A0590914B05A0914C05B091C3
:1026F0004D05298D3A8D4B8D5C8DBC01CD010E941D
:10270000B01EDC01CB018D8F9E8FAF8FB8A380915F
:10271000140290911502A0911602B09117022D8D0E
:102720003E8D4F8D58A1BC01CD010E946820DC0177
:10273000CB017C018D0180917A0690917B06A0915E
:102740007C06B0917D069C01AD01C801B7010E94D5
:10275000B11EDC01CB018D8B9E8BAF8BB88F80912E
:10276000000290910102A0910202B09103022D8912
:102770003E894F89588DBC01CD010E94151F8823C9
:102780006CF48091000290910102A0910202B0913C
:1027900003028D8B9E8BAF8BB88F1EC0809174020D
:1027A00090917502A0917602B09177022D893E89B1
:1027B0004F89588DBC01CD010E946420181664F425
:1027C0008091740290917502A0917602B091770287
:1027D0008D8B9E8BAF8BB88F809151058823C9F567
:1027E00080915005882369F48091460590914705B2
:1027F000A0914805B09149058D8B9E8BAF8BB88F0A
:1028000028C08091460590914705A0914805B09158
:1028100049052D893E894F89588DBC01CD010E9403
:102820006420882354F48D899E89AF89B88DBC01BA
:10283000CD010E94AC1C882361F0809146059091E7
:102840004705A0914805B09149058D8B9E8BAF8BB4
:10285000B88F8091000290910102A0910202B09184
:1028600003022D893E894F89588DBC01CD010E94FC
:10287000151F88236CF48091000290910102A091B1
:102880000202B09103028D8B9E8BAF8BB88F1EC05E
:102890008091780290917902A0917A02B0917B02A6
:1028A0002D893E894F89588DBC01CD010E9464203D
:1028B000181664F48091780290917902A0917A02BE
:1028C000B0917B028D8B9E8BAF8BB88F8D899E894B
:1028D000AF89B88D20E030E0A901BC01CD010E9494
:1028E000642088231CF18D899E89AF89B88D209141
:1028F0000002309101024091020250910302BC019A
:10290000CD010E94191FDC01CB0120E030E04FE730
:1029100053E4BC01CD010E946820DC01CB018D8B0A
:102920009E8BAF8BB88F81E08BA322C08D899E894F
:10293000AF89B88DB05820910402309105024091C2
:10294000060250910702BC01CD010E94191FDC0153
:10295000CB0120E030E04FE753E4BC01CD010E9401
:102960006820DC01CB018D8B9E8BAF8BB88F1BA2B7
:102970008BA1682F8EE00E9491028EE696E09C8BE0
:102980008B8B62E070E080E090E00E9496039C01F7
:102990008B899C89FC01378326838D899E89AF8929
:1029A000B88D20E030E04FE753E4BC01CD010E9438
:1029B000151F18164CF08D899E89AF89B88D8983B3
:1029C0009A83AB83BC8308C080E090E0AFE7B3E4B8
:1029D00089839A83AB83BC8311E020E030E0A901B6
:1029E00069817A818B819C810E94642088230CF408
:1029F00010E081E08127882321F019821A821B824E
:102A00001C82209174063091750689819A81AB8170
:102A1000BC81AC01BD01C9010E941D038091590513
:102A2000682F85E30E949102C0907A06D0907B06C1
:102A3000E0907C06F0907D0680910802909109025A
:102A4000A0910A02B0910B022D8D3E8D4F8D58A1A1
:102A5000BC01CD010E946820DC01CB014C015D016D
:102A60008091700290917102A0917202B0917302F4
:102A70009C01AD01C501B4010E946820DC01CB01BD
:102A80009C01AD01C701B6010E94B11EDC01CB0162
:102A900080937A0690937B06A0937C06B0937D0684
:102AA00080917A0690917B06A0917C06B0917D067C
:102AB00020910002309101024091020250910302E4
:102AC000BC01CD010E94642088238CF0809100021B
:102AD00090910102A0910202B091030280937A06C4
:102AE00090937B06A0937C06B0937D0627C08091CF
:102AF0007A0690917B06A0917C06B0917D0620918C
:102B00001002309111024091120250911302BC0147
:102B1000CD010E94151F18160CF410C080911002F0
:102B200090911102A0911202B091130280937A0643
:102B300090937B06A0937C06B0937D060000A5963B
:102B40000FB6F894DEBF0FBECDBFDF91CF911F91BE
:102B50000F91FF90EF90DF90CF90BF90AF909F903C
:102B60008F900895EF92FF920F931F93CF93DF936F
:102B700000D01F92CDB7DEB784E090E09DD68FEFF6
:102B80009FEF90934F0580934E0580910C0290919A
:102B90000D02A0910E02B0910F0280937A069093DD
:102BA0007B06A0937C06B0937D0680E090E0ACE0CD
:102BB000B2E48093760690937706A0937806B0935C
:102BC00079068FEF9FEF90934F0580934E058CE52C
:102BD00095E00E94E9068BE595E00E94E9068AE50A
:102BE00095E00E94E90610926A058091500290914A
:102BF0005102A0915202B0915302809372059093BA
:102C00007305A0937405B09375058AE695E09A83E1
:102C1000898381E090E0A0E0B0E080936B05909321
:102C20006C05A0936D05B0936E0567E370E080E0DE
:102C300090E00E9438019C0189819A81FC013783D0
:102C4000268381E080936F051092760580914C0277
:102C500090914D02A0914E02B0914F0280937E055B
:102C600090937F05A0938005B093810586E795E05A
:102C70009A83898381E090E0A0E0B0E080937705BB
:102C800090937805A0937905B0937A0566E370E098
:102C900080E090E00E9438019C0189819A81FC01CA
:102CA0003783268381E080937B0510925E058091B7
:102CB000540290915502A0915602B0915702809310
:102CC000660590936705A0936805B09369058EE546
:102CD00095E09A83898381E090E0A0E0B0E0809362
:102CE0005F0590936005A0936105B093620568E36A
:102CF00070E080E090E00E9438019C0189819A8117
:102D0000FC013783268381E0809363051092FA05E6
:102D100080911C0290911D02A0911E02B0911F0291
:102D20008093020690930306A0930406B0930506D1
:102D300081E090E0A0E0B0E08093FB059093FC057B
:102D4000A093FD05B093FE0560E080E30E946F0252
:102D500081E08093FF051092BE0580913002909132
:102D60003102A0913202B09133028093C605909354
:102D7000C705A093C805B093C90581E090E0A0E025
:102D8000B0E08093BF059093C005A093C105B093B8
:102D9000C20560E086E10E946F0281E08093C30576
:102DA0001092A6058091380290913902A0913A02C2
:102DB000B0913B028093AE059093AF05A093B00510
:102DC000B093B10581E090E0A0E0B0E08093A7056A
:102DD0009093A805A093A905B093AA0560E088E1A7
:102DE0000E946F0281E08093AB051092CA0580912A
:102DF0002C0290912D02A0912E02B0912F0280936F
:102E0000D2059093D305A093D405B093D50581E066
:102E100090E0A0E0B0E08093CB059093CC05A09328
:102E2000CD05B093CE0560E08AE10E946F0281E09B
:102E30008093CF051092D6058091280290912902A7
:102E4000A0912A02B0912B028093DE059093DF05BA
:102E5000A093E005B093E10581E090E0A0E0B0E050
:102E60008093D7059093D805A093D905B093DA0540
:102E700060E08CE10E946F0281E08093DB0510929C
:102E8000EE058091200290912102A0912202B09142
:102E900023028093F6059093F705A093F805B0936D
:102EA000F90581E090E0A0E0B0E08093EF05909319
:102EB000F005A093F105B093F20560E08EE10E9469
:102EC0006F0281E08093F3051092E2058091240265
:102ED00090912502A0912602B09127028093EA05E5
:102EE0009093EB05A093EC05B093ED0581E090E0A5
:102EF000A0E0B0E08093E3059093E405A093E5059E
:102F0000B093E60560E082E30E946F0281E0809367
:102F1000E705109282058091400290914102A091B4
:102F20004202B091430280938A0590938B05A0934F
:102F30008C05B0938D0582E895E09A83898381E0C2
:102F400090E0A0E0B0E08093830590938405A09387
:102F50008505B093860565E470E080E090E00E940E
:102F600038019C0189819A81FC013783268381E0A5
:102F70008093870510929A0580913C0290913D02C2
:102F8000A0913E02B0913F028093A2059093A305C9
:102F9000A093A405B093A50581E090E0A0E0B0E087
:102FA00080939B0590939C05A0939D05B0939E05EF
:102FB00060E084E30E946F0281E080939F0510929D
:102FC0008E058091180290911902A0911A02B09179
:102FD0001B028093960590939705A0939805B09354
:102FE00099058EE895E09A83898381E090E0A0E0DE
:102FF000B0E080938F0590939005A0939105B093D6
:1030000092056EE370E080E090E00E9438019C0140
:1030100089819A81FC013783268381E0809393051F
:103020001092B2058091340290913502A09136023F
:10303000B09137028093BA059093BB05A093BC056D
:10304000B093BD0581E090E0A0E0B0E08093B305CF
:103050009093B405A093B505B093B60560E085E103
:103060000E946F0281E08093B7051092660681E0AE
:1030700090E0A0E0B0E08093670690936806A0938C
:103080006906B0936A0661E08FE10E946F0281E0F9
:1030900080936B061092260681E090E0A0E0B0E0FD
:1030A0008093270690932806A0932906B0932A06BA
:1030B00061E08DE10E946F0281E080932B06109207
:1030C0001E0681E090E0A0E0B0E080931F069093A0
:1030D0002006A0932106B093220661E08BE10E94B6
:1030E0006F0281E0809323061092160681E090E043
:1030F000A0E0B0E08093170690931806A0931906FD
:10310000B0931A0661E087E10E946F0281E080932C
:103110001B0610920E0681E090E0A0E0B0E08093E4
:103120000F0690931006A0931106B093120661E06B
:1031300089E10E946F0281E08093130610925E067F
:1031400081E090E0A0E0B0E080935F06909360069D
:10315000A0936106B093620661E083E30E946F0270
:1031600081E0809363061092560681E090E0A0E033
:10317000B0E08093570690935806A0935906B093F9
:103180005A0661E081E30E946F0281E080935B0652
:1031900010924E0681E090E0A0E0B0E080934F06F0
:1031A00090935006A0935106B093520661E08FE2CF
:1031B0000E946F0281E0809353061092460681E0E0
:1031C00090E0A0E0B0E08093470690934806A0937B
:1031D0004906B0934A0661E08DE20E946F0281E0E9
:1031E00080934B0610923E0681E090E0A0E0B0E0B4
:1031F00080933F0690934006A0934106B093420609
:1032000061E08BE20E946F0281E08093430610929E
:10321000360681E090E0A0E0B0E08093370690931E
:103220003806A0933906B0933A0661E089E20E941D
:103230006F0281E080933B061092060681E090E0E9
:10324000A0E0B0E08093070690930806A0930906DB
:10325000B0930A0661E08EE00E946F0281E08093E5
:103260000B0610926E068EE696E09C838B8381E0BF
:1032700090E0A0E0B0E080936F0690937006A0937A
:103280007106B0937206E12CF12C870120E030E04A
:10329000A90162E070E080E090E00E94C1029C0120
:1032A0008B819C81FC013783268381E080937306A8
:1032B00010922E0681E090E0A0E0B0E080932F060F
:1032C00090933006A0933106B093320661E085E317
:1032D0000E946F0281E08093330600000F900F90F0
:1032E0000F900F90DF91CF911F910F91FF90EF9072
:1032F0000895CF93DF9300D01F92CDB7DEB78AE653
:1033000095E09A83898380916A05882329F581E075
:1033100080936A0580916B0590916C05A0916D0575
:10332000B0916E050197A105B105B1F480916F05CB
:10333000882391F067E370E080E090E00E94C40190
:103340009C0189819A81FC013783268380917005D5
:10335000909171050E949F0186E795E09A83898389
:1033600080917605882329F581E080937605809108
:10337000770590917805A0917905B0917A0501972C
:10338000A105B105B1F480917B05882391F066E336
:1033900070E080E090E00E94C4019C0189819A81E4
:1033A000FC013783268380917C0590917D050E94E6
:1033B0009F018EE595E09A83898380915E0588233D
:1033C00029F581E080935E0580915F05909160050D
:1033D000A0916105B09162050197A105B105B1F415
:1033E00080916305882391F068E370E080E090E0CD
:1033F0000E94C4019C0189819A81FC013783268344
:1034000080916405909165050E949F018091FA0565
:10341000882319F481E08093FA058091BE05882302
:1034200019F481E08093BE058091A605882319F4E4
:1034300081E08093A6058091CA05882319F481E074
:103440008093CA058091D605882319F481E0809382
:10345000D6058091EE05882319F481E08093EE056E
:103460008091E205882319F481E08093E20582E8E7
:1034700095E09A83898380918205882329F581E0EC
:10348000809382058091830590918405A0918505A4
:10349000B09186050197A105B105B1F4809187052A
:1034A000882391F065E470E080E090E00E94C40120
:1034B0009C0189819A81FC0137832683809188054C
:1034C000909189050E949F0180919A05882319F4A3
:1034D00081E080939A058EE895E09A8389838091B4
:1034E0008E05882329F581E080938E0580918F05D4
:1034F00090919005A0919105B09192050197A10539
:10350000B105B1F480919305882391F06EE370E0EA
:1035100080E090E00E94C4019C0189819A81FC01B5
:103520003783268380919405909195050E949F0191
:103530008091B205882319F481E08093B2058091CF
:103540006606882319F481E080936606809126063A
:10355000882319F481E08093260680911E06882333
:1035600019F481E080931E0680911606882319F4D1
:1035700081E08093160680910E06882319F481E07D
:1035800080930E0680915E06882319F481E0809373
:103590005E0680915606882319F481E080935606D2
:1035A00080914E06882319F481E080934E06809125
:1035B0004606882319F481E08093460680913E06F2
:1035C000882319F481E080933E0680913606882393
:1035D00019F481E08093360680910606882319F459
:1035E00081E0809306068EE696E09C838B83809133
:1035F0006E068823D1F581E080936E0680916F0678
:1036000090917006A0917106B09172060197A10584
:10361000B10559F580917306882339F162E070E0B5
:1036200080E090E00E9496039C018B819C81FC01CC
:1036300037832683809174069091750640E050E0B0
:10364000BA010E941D0362E070E080E090E00E94F9
:1036500096039C018B819C81FC013783268380919A
:103660007406909175060E94710380912E0688233E
:1036700019F481E080932E0600000F900F900F90B8
:103680000F90DF91CF910895CF93DF93CDB7DEB741
:103690002E970FB6F894DEBF0FBECDBF80E290E04C
:1036A0009E838D8319821A821B821C828D819E814A
:1036B000809741F42AD0DC01CB0189839A83AB83C4
:1036C000BC8314C080E090E0A0EFBFE78B879C87AD
:1036D000AD87BE871F82188619861A868F819885C6
:1036E000A985BA8589839A83AB83BC8389819A81B2
:1036F000AB81BC81BC01CD012E960FB6F894DEBF24
:103700000FBECDBFDF91CF910895CF93DF9300D04F
:103710001F92CDB7DEB780E090E0A0E8BFE78983D5
:103720009A83AB83BC8389819A81AB81BC81BC01C4
:10373000CD010F900F900F900F90DF91CF910895D2
:10374000CF93DF93CDB7DEB72E970FB6F894DEBFD9
:103750000FBECDBF80E290E09E838D8319821A82D6
:103760001B821C828D819E81809741F42AD0DC01CE
:10377000CB0189839A83AB83BC8314C080E090E043
:10378000A0EFBFEF8B879C87AD87BE871F8218860F
:1037900019861A868F819885A985BA8589839A8327
:1037A000AB83BC8389819A81AB81BC81BC01CD0193
:1037B0002E960FB6F894DEBF0FBECDBFDF91CF912E
:1037C0000895CF93DF9300D01F92CDB7DEB780E08E
:1037D00090E0A0E8BFEF89839A83AB83BC838981A3
:1037E0009A81AB81BC81BC01CD010F900F900F90ED
:1037F0000F90DF91CF910895CF93DF93CDB7DEB7D0
:103800002E970FB6F894DEBF0FBECDBF80E290E0DA
:103810009E838D8319821A821B821C828D819E81D8
:10382000809741F42AD0DC01CB0189839A83AB8352
:10383000BC8314C080E090E0A8EFBFEF8B879C872B
:10384000AD87BE871F82188619861A868F81988554
:10385000A985BA8589839A83AB83BC8389819A8140
:10386000AB81BC81BC01CD012E960FB6F894DEBFB2
:103870000FBECDBFDF91CF910895CF93DF9300D0DE
:103880001F92CDB7DEB719821A821B821C8280E09C
:1038900090E0A0ECBFEF89839A83AB83BC838981DE
:1038A0009A81AB81BC81BC01CD010F900F900F902C
:1038B0000F90DF91CF910895CF93DF931F921F92C6
:1038C000CDB7DEB79A83898397DFDC01CB01809384
:1038D000A0069093A106A093A206B093A306CDDF05
:1038E000DC01CB018093940690939506A0939606F5
:1038F000B0939706C9DEDC01CB0180939C069093C0
:103900009D06A0939E06B0939F06FFDEDC01CB01CF
:103910008093980690939906A0939A06B0939B067D
:103920000FDFDC01CB018093A4069093A506A09342
:10393000A606B093A70645DFDC01CB018093A8065D
:103940009093A906A093AA06B093AB0600000F902F
:103950000F90DF91CF910895CF93DF9300D000D0E7
:103960001F921F92CDB7DEB76D837E838F839887BA
:103970008D819E81AF81B88589839A83AB83BC8317
:1039800089819A81AB81BC8188279927A078BF77EC
:103990000097A048BF4769F489819A81AB81BC81B7
:1039A000AF77BB27892B8A2B8B2B19F081E090E016
:1039B00002C080E090E028960FB6F894DEBF0FBEFC
:1039C000CDBFDF91CF910895CF93DF93CDB7DEB711
:1039D00026E030E040E855E260E070E080E090E012
:1039E00004D00000DF91CF910895CF93DF9300D0F2
:1039F00000D000D01F92CDB7DEB79C838B834D8360
:103A00005E836F8378873A8729871092C502109268
:103A1000C40289859A859A8389838B819C818130B0
:103A2000910561F1823091051CF4892B49F086C023
:103A30008230910509F440C0039709F45AC07EC052
:103A40008091C4029091C50281709927892B09F059
:103A50006EC08091C4029091C50281609093C502AE
:103A60008093C40229818D819E81AF81B885AC018C
:103A7000BD0182ED92E00E94132760C08091C402D4
:103A80009091C50282709927892B09F052C08091CC
:103A9000C4029091C50282609093C5028093C402D3
:103AA00029818D819E81AF81B885AC01BD018FE6F2
:103AB00093E00E94132742C08091C4029091C502F6
:103AC00084709927892BB9F58091C4029091C50221
:103AD00084609093C5028093C40229818D819E8168
:103AE000AF81B885AC01BD018CE094E00E94132742
:103AF00025C08091C4029091C50288709927892BB6
:103B0000E1F48091C4029091C50288609093C5024F
:103B10008093C40229818D819E81AF81B885AC01DB
:103B2000BD0189EA94E00E941327000007C000004D
:103B300005C0000003C0000001C000002A960FB6B7
:103B4000F894DEBF0FBECDBFDF91CF9108951F92D5
:103B50000F920FB60F9211240BB60F922F933F9333
:103B60004F935F936F937F938F939F93AF93BF9385
:103B7000EF93FF93CF93DF93CDB7DEB784E291E06D
:103B80002FE83DEFFC013183208368D00000DF91F6
:103B9000CF91FF91EF91BF91AF919F918F917F91C5
:103BA0006F915F914F913F912F910F900BBE0F90AE
:103BB0000FBE0F901F901895CF93DF93CDB7DEB750
:103BC00084E291E02FE83DEFFC013183208383E71D
:103BD00090E0FC01208183E790E02E7FFC012083B0
:103BE00080E291E0FC01208180E291E02C7FFC01E9
:103BF000208381E291E0FC01208181E291E0277E37
:103C0000FC01208381E291E0FC01208181E291E0CE
:103C10002460FC01208381E291E0FC01208181E2AB
:103C200091E02C7FFC01208383E790E0FC01208160
:103C300083E790E02160FC0120830000DF91CF91B9
:103C40000895CF93DF931F92CDB7DEB7198281E03D
:103C5000898389810F90DF91CF910895CF93DF936E
:103C6000CDB7DEB78091C80291E0980F9093C8025B
:103C7000882361F081E090E09093C7028093C602B0
:103C80008091C80281508093C80209C078940E9434
:103C90003F0CF8948091C80281508093C802DF9154
:103CA000CF910895CF93DF9300D000D01F921F9241
:103CB000CDB7DEB78AE097EDA3E2BCE389839A83B0
:103CC000AB83BC831D821E821F8218861092AD06B4
:103CD0001092AC06D1D278DE80917D0290917E0266
:103CE000FC01118210820E94B215F89465DF809168
:103CF0007D0290917E02FC018081918121E0892BDF
:103D000009F020E0822F8093AC067894789417C055
:103D100080917D0290917E02FC018081918121E061
:103D2000892B09F420E0822F8093AD069091AD0697
:103D300081E0992309F080E08093AC0682DF8091D6
:103D4000AC06882329F7D5DAF89480E090E028962D
:103D50000FB6F894DEBF0FBECDBFDF91CF910895AF
:103D60005058BB27AA270ED075C166D130F06BD151
:103D700020F031F49F3F11F41EF45BC10EF4E09586
:103D8000E7FB51C1E92F77D180F3BA1762077307B8
:103D90008407950718F071F49EF58FC10EF4E09535
:103DA0000B2EBA2FA02D0B01B90190010C01CA01F5
:103DB000A0011124FF27591B99F0593F50F4503EA0
:103DC00068F11A16F040A22F232F342F4427585F92
:103DD000F3CF469537952795A795F0405395C9F7AA
:103DE0007EF41F16BA0B620B730B840BBAF0915062
:103DF000A1F0FF0FBB1F661F771F881FC2F70EC001
:103E0000BA0F621F731F841F48F4879577956795D3
:103E1000B795F7959E3F08F0B3CF9395880F08F0BC
:103E20009927EE0F979587950895D9D008F481E0EA
:103E300008950CD00FC107D140F0FED030F021F42E
:103E40005F3F19F0F0C0511139C1F3C014D198F39C
:103E50009923C9F35523B1F3951B550BBB27AA270B
:103E600062177307840738F09F5F5F4F220F331F7D
:103E7000441FAA1FA9F333D00E2E3AF0E0E830D049
:103E800091505040E695001CCAF729D0FE2F27D04C
:103E9000660F771F881FBB1F261737074807AB071A
:103EA000B0E809F0BB0B802DBF01FF2793585F4F8F
:103EB0002AF09E3F510568F0B6C000C15F3FECF3A9
:103EC000983EDCF3869577956795B795F7959F5F54
:103ED000C9F7880F911D9695879597F90895E1E0A8
:103EE000660F771F881FBB1F621773078407BA0707
:103EF00020F0621B730B840BBA0BEE1F88F7E09562
:103F0000089504D06894B111D9C00895BCD088F048
:103F10009F5790F0B92F9927B751A0F0D1F0660FB5
:103F2000771F881F991F1AF0BA95C9F712C0B130D0
:103F300081F0C3D0B1E00895C0C0672F782F8827E3
:103F4000B85F39F0B93FCCF3869577956795B3950F
:103F5000D9F73EF490958095709561957F4F8F4F7E
:103F60009F4F0895E89409C097FB3EF49095809583
:103F7000709561957F4F8F4F9F4F9923A9F0F92F2F
:103F800096E9BB279395F695879577956795B795AD
:103F9000F111F8CFFAF4BB0F11F460FF1BC06F5F93
:103FA0007F4F8F4F9F4F16C0882311F096E911C0A5
:103FB000772321F09EE8872F762F05C0662371F0C6
:103FC00096E8862F70E060E02AF09A95660F771FDA
:103FD000881FDAF7880F9695879597F90895990FB6
:103FE0000008550FAA0BE0E8FEEF16161706E807C3
:103FF000F907C0F012161306E407F50798F0621BE4
:10400000730B840B950B39F40A2661F0232B242BB8
:10401000252B21F408950A2609F4A140A6958FEFD7
:10402000811D811D089597F99F6780E870E060E029
:1040300008959FEF80EC089500240A941616170641
:1040400018060906089500240A9412161306140689
:1040500005060895092E0394000C11F4882352F0EC
:10406000BB0F40F4BF2B11F460FF04C06F5F7F4FA4
:104070008F4F9F4F089557FD9058440F551F59F08B
:104080005F3F71F04795880F97FB991F61F09F3F45
:1040900079F087950895121613061406551FF2CF6E
:1040A0004695F1DF08C0161617061806991FF1CFBE
:1040B00086957105610508940895E894BB276627E5
:1040C0007727CB0197F908958ADF08F48FEF0895D9
:1040D0000BD0C0CFB1DF28F0B6DF18F0952309F080
:1040E000A2CFA7CF1124EACFC6DFA0F3959FD1F3CB
:1040F000950F50E0551F629FF001729FBB27F00D96
:10410000B11D639FAA27F00DB11DAA1F649F6627EA
:10411000B00DA11D661F829F2227B00DA11D621F39
:10412000739FB00DA11D621F839FA00D611D221FF3
:10413000749F3327A00D611D231F849F600D211DD7
:10414000822F762F6A2F11249F5750408AF0E1F07A
:1041500088234AF0EE0FFF1FBB1F661F771F881FC3
:1041600091505040A9F79E3F510570F05CCFA6CF0B
:104170005F3FECF3983EDCF3869577956795B795AE
:10418000F795E7959F5FC1F7FE2B880F911D9695D8
:10419000879597F908951F920F920FB60F921124E9
:1041A0008F939F93AF93BF93CF93DF93CDB7DEB73A
:1041B0002597DEBFCDBF8091CD029091CE02A09118
:1041C000CF02B091D00289839A83AB83BC83809164
:1041D000D1028D8389819A81AB81BC810196A11D19
:1041E000B11D89839A83AB83BC838D818D5F8D8361
:1041F0008D818D3770F08D818D578D8389819A8166
:10420000AB81BC810196A11DB11D89839A83AB83CB
:10421000BC838D818093D10289819A81AB81BC81DD
:104220008093CD029093CE02A093CF02B093D002A0
:104230008091C9029091CA02A091CB02B091CC02A8
:104240000196A11DB11D8093C9029093CA02A0934B
:10425000CB02B093CC0200000F900F900F900F9004
:104260000F90DF91CF91BF91AF919F918F910F9060
:104270000FBE0F901F901895CF93DF93CDB7DEB789
:10428000789484E490E0FC01208184E490E0226052
:10429000FC01208384E490E0FC01208184E490E030
:1042A0002160FC01208385E490E0FC01208185E40D
:1042B00090E02260FC01208385E490E0FC012081F5
:1042C00085E490E02160FC0120838EE690E0FC0113
:1042D00020818EE690E02160FC01208381E890E05F
:1042E000FC01108281E890E0FC01208181E890E0EF
:1042F0002260FC01208381E890E0FC01208181E8BC
:1043000090E02160FC01208380E890E0FC012081A6
:1043100080E890E02160FC01208381EB90E0FC01CB
:10432000208181EB90E02460FC01208380EB90E011
:10433000FC01208180EB90E02160FC01208381E979
:1043400090E0FC01208181E990E02260FC01208363
:1043500081E990E0FC01208181E990E02160FC018D
:10436000208380E990E0FC01208180E990E02160D9
:10437000FC01208381EA90E0FC01208181EA90E049
:104380002260FC01208381EA90E0FC01208181EA27
:1043900090E02160FC01208380EA90E0FC01208114
:1043A00080EA90E02160FC01208381E291E0FC0141
:1043B000208181E291E02260FC01208381E291E092
:1043C000FC01208181E291E02160FC01208380E2F8
:1043D00091E0FC01208180E291E02160FC012083DA
:1043E0008AE790E0FC0120818AE790E02460FC01EC
:1043F00020838AE790E0FC0120818AE790E0226038
:10440000FC0120838AE790E0FC0120818AE790E0AC
:104410002160FC0120838AE790E0FC0120818AE78B
:1044200090E02068FC01208381EC90E0FC01108288
:104430000000DF91CF910895CF93DF9300D0CDB7E7
:10444000DEB78B838B81863318F08B8186538B8309
:104450008BE790E0FC018081482F477F8B81869518
:1044600086958695882F90E0880F991F880F991F51
:10447000880F991F8870482B8BE790E0FC014083E0
:1044800080917C02882F90E0382F36953695282F22
:104490002295220F220F207C922F8B818770292F4B
:1044A000282B8CE790E0FC0120838AE790E0FC0158
:1044B00020818AE790E02064FC01208300008AE7E5
:1044C00090E0FC018081882F90E080749927892BEF
:1044D000B1F788E790E0FC018081898389E790E06B
:1044E000FC0180818A838A81882F90E0382F2227DF
:1044F0008981882F90E0822B932B0F900F900F9043
:10450000DF91CF910895CF93DF9300D000D0CDB746
:10451000DEB78C837E836D8361E08C816ED18D816B
:104520009E81892B21F460E08C8106D35CC18D8152
:104530009E818F3F910521F461E08C81FDD253C1B2
:104540008C81882F90E082549E4F9A838983898141
:104550009A81FC0184918B838B81882F90E0092EB6
:10456000000CAA0BBB0B0197A109B109823191057F
:10457000A105B10508F02AC1FC018827ED53FD4DC6
:104580008F4F0C94F12DD522E422F322042315231E
:10459000E6232623352344235523662377239123BB
:1045A000A223E623B323C423D52384E490E0FC01B3
:1045B000208184E490E02068FC01208387E490E07F
:1045C0002D81FC0120830FC184E490E0FC01208157
:1045D00084E490E02062FC01208388E490E02D8157
:1045E000FC01208300C180E890E0FC01208180E88C
:1045F00090E02068FC01208388E890E02D813E81D6
:10460000FC0131832083EFC080E890E0FC01208131
:1046100080E890E02062FC0120838AE890E02D8110
:104620003E81FC0131832083DEC080E890E0FC0104
:10463000208180E890E02860FC0120838CE890E0F5
:104640002D813E81FC0131832083CDC080EB90E041
:10465000FC01208180EB90E02068FC01208383EB4B
:1046600090E02D81FC012083BEC080EB90E0FC0136
:10467000208180EB90E02062FC01208384EB90E0BD
:104680002D81FC012083AFC080E990E0FC012081F6
:1046900080E990E02068FC01208388E990E02D818A
:1046A0003E81FC01318320839EC080E990E0FC01C3
:1046B000208180E990E02062FC0120838AE990E07B
:1046C0002D813E81FC01318320838DC080E990E003
:1046D000FC01208180E990E02860FC0120838CE9C6
:1046E00090E02D813E81FC01318320837CC080EAF3
:1046F00090E0FC01208180EA90E02068FC012083AA
:1047000080EA90E0FC01208180EA90E02F7BFC01B0
:10471000208388EA90E02D813E81FC013183208353
:1047200062C080EA90E0FC01208180EA90E0206293
:10473000FC0120838AEA90E02D813E81FC013183D7
:10474000208351C080EA90E0FC01208180EA90E063
:104750002860FC0120838CEA90E02D813E81FC01E1
:104760003183208340C080E291E0FC01208180E21F
:1047700091E02068FC01208388E291E02D813E8158
:10478000FC01318320832FC080E291E0FC01208175
:1047900080E291E02062FC0120838AE291E02D8199
:1047A0003E81FC01318320831EC080E291E0FC0148
:1047B000208180E291E02860FC0120838CE291E07E
:1047C0002D813E81FC01318320830DC08D819E812E
:1047D0008038910524F460E08C81AED104C061E0A2
:1047E0008C81AAD100C0000026960FB6F894DEBFD7
:1047F0000FBECDBFDF91CF910895CF93DF93CDB79B
:10480000DEB769970FB6F894DEBF0FBECDBF888FB5
:10481000698F888D882F90E088589E4F9A8389836E
:1048200089819A81FC0184918B838B818C83888D13
:10483000882F90E08E5C9E4F9E838D838D819E811C
:10484000FC0184918F838F8188878885882309F470
:1048500095C08885882F90E0880F991F8C519F4FB5
:104860009A87898789859A85FC0125913491CF01A2
:104870003C872B879A8789878B859C859E878D8728
:104880008885882F90E0880F991F82509F4F988BC2
:104890008F878F859889FC0125913491CF013A8BC0
:1048A000298B988B8F8789899A899C8B8B8B898D93
:1048B000882331F58FE590E0FC0180818F8BF8949F
:1048C0008D859E85FC018081982F8C818095892320
:1048D000282F8D859E85FC0120838B899C89FC0176
:1048E0008081982F8C8180958923282F8B899C89A2
:1048F000FC0120838FE590E02F89FC0120833FC0DD
:10490000898D823021F58FE590E0FC0180818E8BCE
:10491000F8948D859E85FC018081982F8C818095EF
:104920008923282F8D859E85FC0120838B899C8976
:10493000FC0190818C81292F282B8B899C89FC017B
:1049400020838FE590E02E89FC01208318C08FE53D
:1049500090E0FC0180818D8BF8948D859E85FC0113
:1049600090818C81292F282B8D859E85FC012083A9
:104970008FE590E02D89FC01208301C0000069963D
:104980000FB6F894DEBF0FBECDBFDF91CF91089573
:10499000CF93DF931F92CDB7DEB789838981882FAC
:1049A00090E0092E000CAA0BBB0B0197A109B109DD
:1049B00082319105A105B10508F0B9C0FC01882735
:1049C000EB51FB4D8F4F0C94F12D15251F25F7242E
:1049D00001250B259725292533253D2547255125DB
:1049E0005B2565256F259725792583258D2580E80D
:1049F00090E0FC01208180E890E02F77FC0120838B
:104A000096C080E890E0FC01208180E890E02F7D56
:104A1000FC0120838CC080E890E0FC01208180E8CC
:104A200090E0277FFC01208382C084E490E0FC01B9
:104A3000208184E490E02F77FC01208378C084E417
:104A400090E0FC01208184E490E02F7DFC01208334
:104A50006EC080EB90E0FC01208180EB90E02F772E
:104A6000FC01208364C080EB90E0FC01208180EB9E
:104A700090E02F7DFC0120835AC080E990E0FC018A
:104A8000208180E990E02F77FC01208350C080E9ED
:104A900090E0FC01208180E990E02F7DFC012083E3
:104AA00046C080E990E0FC01208180E990E0277F0A
:104AB000FC0120833CC080EA90E0FC01208180EA78
:104AC00090E02F77FC01208332C080EA90E0FC0167
:104AD000208180EA90E02F7DFC01208328C080EABD
:104AE00090E0FC01208180EA90E0277FFC01208398
:104AF0001EC080E291E0FC01208180E291E02F77EE
:104B0000FC01208314C080E291E0FC01208180E25E
:104B100091E02F7DFC0120830AC080E291E0FC013E
:104B2000208180E291E0277FFC01208300000000CB
:104B30000F90DF91CF910895CF93DF93CDB7DEB77C
:104B400065970FB6F894DEBF0FBECDBF8C8B6D8B13
:104B50008C89882F90E082549E4F9A838983898123
:104B60009A81FC0184918B838B818C838C89882F23
:104B700090E088589E4F9E838D838D819E81FC019D
:104B800084918F838F8188878C89882F90E08E5CB9
:104B90009E4F9A87898789859A85FC0184918B87A6
:104BA0008B858C878C85882309F444C08C8188236D
:104BB00011F08C81EDDE8C85882F90E0880F991F95
:104BC00082509F4F9E878D878D859E85FC01259104
:104BD0003491CF01388B2F879E878D878F85988959
:104BE0009A8B898B8FE590E0FC0180818B8BF89408
:104BF0008D89882371F489899A89FC018081982F95
:104C0000888580958923282F89899A89FC012083AA
:104C10000BC089899A89FC0190818885292F282BCE
:104C200089899A89FC0120838FE590E02B89FC011A
:104C3000208301C0000065960FB6F894DEBF0FBE5A
:104C4000CDBFDF91CF910895CF93DF93CDB7DEB77E
:104C500061970FB6F894DEBF0FBECDBF898B8989EF
:104C6000882F90E082549E4F9A83898389819A810C
:104C7000FC0184918B838B818C838989882F90E0C0
:104C800088589E4F9E838D838D819E81FC018491E7
:104C90008F838F8188878989882F90E08E5C9E4FD3
:104CA0009A87898789859A85FC0184918B878B8572
:104CB0008C878C85882319F480E090E025C08C8156
:104CC000882311F08C8164DE8C85882F90E0880F1A
:104CD000991F885E9E4F9E878D878D859E85FC01DE
:104CE00025913491CF01388B2F879E878D878F85B3
:104CF0009889FC01908188858923882319F081E0B7
:104D000090E002C080E090E061960FB6F894DEBFBC
:104D10000FBECDBFDF91CF910895CF93DF93CDB775
:104D2000DEB7F89481E0DF91CF910895CF93DF93C0
:104D30001F921F92CDB7DEB79A8389838FE590E0EB
:104D400029813A81F9012081FC01208300000F9024
:104D50000F90DF91CF910895CF93DF9300D0CDB71F
:104D6000DEB79B838A838A819B81FC01848D882F97
:104D700090E02A813B81820F931F835A9F4FFC0151
:104D8000808189838A819B81FC01848D882F90E0BA
:104D900001968F739078992324F40197806C9F6F0C
:104DA0000196282F8A819B81FC01248F8A819B8117
:104DB000FC01868997892981FC0120838A819B8156
:104DC000FC0180899189FC0180818370282F2064F7
:104DD0008A819B81FC0180899189FC0120838A81E1
:104DE0009B81FC01238D8A819B81FC01948D81E054
:104DF000291709F080E0882379F08A819B81FC01E2
:104E000082899389FC0120818A819B81FC018289AE
:104E100093892F7DFC01208300000F900F900F904D
:104E2000DF91CF910895CF93DF9300D000D000D0D1
:104E3000CDB7DEB79C838B834D835E836F8378878A
:104E4000298780E099E0ADE3B0E02D813E814F817C
:104E50005885BC01CD01A3D6DA01C9010197A1098A
:104E6000B109B695A795979587959A8389838B8184
:104E70009C81FC018089918922E0FC0120838D8145
:104E80009E81AF81B8858115914EA105B10529F0AC
:104E900089819A8181159041E8F08B819C81FC0188
:104EA00080899189FC01108280E894E8AEE1B0E04D
:104EB0002D813E814F815885BC01CD0170D6DA012C
:104EC000C9010197A109B109B695A795979587954D
:104ED0009A83898389819A81292F33278B819C81A9
:104EE000FC0184859585FC0120838B819C81FC01DC
:104EF000868597852981FC0120838B819C81FC011B
:104F0000108E8B819C81FC01848995892985FC0107
:104F100020838B819C81FC0182899389FC01208103
:104F20008B819C81FC01828993892061FC01208313
:104F30008B819C81FC0182899389FC0120818B817A
:104F40009C81FC01828993892860FC0120838B81EC
:104F50009C81FC0182899389FC0120818B819C8149
:104F6000FC01828993892068FC0120838B819C81CC
:104F7000FC0182899389FC0120818B819C81FC0149
:104F8000828993892F7DFC012083000029960FB62A
:104F9000F894DEBF0FBECDBFDF91CF910895CF93C0
:104FA000DF931F921F92CDB7DEB79A8389838981E1
:104FB0009A81FC01818D882F90E09C01205C3F4FFD
:104FC00089819A81FC01828D882F90E0A901481B7C
:104FD000590BCA018F7399270F900F90DF91CF91D2
:104FE0000895CF93DF931F921F92CDB7DEB79A83B8
:104FF000898389819A81FC01218D89819A81FC01B3
:10500000928D81E0291709F080E0882319F08FEF55
:105010009FEF0FC089819A81FC01828D882F90E0DB
:1050200029813A81820F931F4D96FC018081882F40
:1050300090E00F900F90DF91CF910895CF93DF9381
:1050400000D0CDB7DEB79B838A838A819B81FC0128
:10505000218D8A819B81FC01928D81E0291709F0C5
:1050600080E0882319F08FEF9FEF1CC08A819B811D
:10507000FC01828D882F90E02A813B81820F931F53
:105080004D96FC01808189838A819B81FC01828D00
:105090008F5F282F2F738A819B81FC01228F89814A
:1050A000882F90E00F900F900F90DF91CF9108958F
:1050B000CF93DF9300D01F92CDB7DEB79C838B8355
:1050C0008B819C81FC01838D89838B819C81FC0178
:1050D000848D8A8399818A81981768F08981882FC5
:1050E00090E02FE330E0281B390B8A81882F90E075
:1050F000820F931F0BC08A81282F30E08981882F6F
:1051000090E0A901481B590BCA0101970F900F901D
:105110000F900F90DF91CF910895CF93DF931F925F
:105120001F92CDB7DEB79A83898389819A81FC016A
:10513000908D81E08927882309F04DC089819A816B
:10514000FC0182899389FC018081882F90E0807224
:105150009927892B69F489819A81FC018089918939
:10516000FC018081882F90E080749927892B11F4AD
:1051700081E001C080E0882379F18FE590E0FC01B7
:10518000808188237CF089819A81FC0182899389BE
:10519000FC018081882F90E080729927892B11F083
:1051A00081E001C080E0882349F289819A81FC0175
:1051B00080899189FC018081882F90E080729927F5
:1051C00021E0892B09F420E0222309F4B7CF89815B
:1051D0009A81C2DDB3CF00000F900F90DF91CF9185
:1051E0000895CF93DF9300D000D01F921F92CDB7C8
:1051F000DEB79F838E8368878E819F8121E0FC01CB
:10520000208F8E819F81FC01238D8E819F81FC01E7
:10521000848D281779F48E819F81FC018089918982
:10522000FC018081882F90E080729927892B11F0F2
:1052300081E001C080E0882359F18FE590E0FC0116
:1052400080818C836ADD898389818823D9F08E816E
:105250009F81FC01868997892885FC0120838E81A6
:105260009F81FC0180899189FC0180818370282FB6
:1052700020648E819F81FC0180899189FC012083BB
:105280001982E2CFCE01049651DD81E090E06EC03C
:105290008E819F81FC01838D882F90E001968F7312
:1052A0009078992324F40197806C9F6F01968B83EB
:1052B0008E819F81FC01948D81E02B81291709F05B
:1052C00080E08823F9F08FE590E0FC0180818095F3
:1052D000881F8827881F882359F38E819F81FC01AE
:1052E00080899189FC018081882F90E080729927C4
:1052F00021E0892B09F420E02223D1F28E819F81C5
:105300002BDDD6CF8E819F81FC01838D882F90E08D
:105310002E813F81820F931F835A9F4F2885FC0166
:1053200020838FE590E0FC0180818D83F6DC8A8309
:105330008A818823B1F08E819F812B81FC01238F8C
:105340008E819F81FC0182899389FC0120818E815D
:105350009F81FC01828993892062FC0120831A824B
:10536000E7CFCE010596E2DC81E090E028960FB60B
:10537000F894DEBF0FBECDBFDF91CF910895CF93DC
:10538000DF931F921F92CDB7DEB79A83898327EAF6
:1053900032E089819A81FC013183208389819A815D
:1053A000FC011382128200000F900F90DF91CF91C9
:1053B0000895CF93DF931F921F92CDB7DEB79A83E4
:1053C000898380E090E00F900F90DF91CF91089556
:1053D000CF93DF931F921F92CDB7DEB79A83898355
:1053E00000000F900F90DF91CF910895CF93DF933E
:1053F0001F921F92CDB7DEB79A83898389819A81E4
:10540000BEDF25E932E089819A81FC013183208366
:1054100029813A8188EE93E0A0E0B0E0F90184832D
:105420009583A683B78300000F900F90DF91CF91F3
:105430000895CF92DF92EF92FF920F931F93CF9335
:10544000DF93CDB7DEB72E970FB6F894DEBF0FBE51
:10545000CDBF9A8389837C836B835E834D8338873A
:105460002F831A870987FC86EB86DE86CD868981A5
:105470009A81BCDF23E832E089819A81FC01318383
:10548000208389819A812B813C81FC013587248787
:1054900089819A812D813E81FC0137872687898108
:1054A0009A812F813885FC01318B208B89819A81EB
:1054B00029853A85FC01338B228B89819A812B8542
:1054C0003C85FC01358B248B89819A812D853E8515
:1054D000FC01378B268B89819A81FC01118E898191
:1054E0009A81FC01128E89819A81FC01138E898137
:1054F0009A81FC01148E00002E960FB6F894DEBF40
:105500000FBECDBFDF91CF911F910F91FF90EF9014
:10551000DF90CF900895CF93DF9300D01F92CDB747
:10552000DEB79C838B838B819C81FC018089918970
:10553000FC018081882F90E08470992721E0892BDD
:1055400009F020E0222371F18B819C81FC01868986
:105550009789FC01808189838B819C81FC01818DED
:105560008F5F8F738A838B819C81FC01928D81E098
:105570002A81291709F480E08823D9F08B819C8146
:10558000FC01818D882F90E02B813C81820F931F3D
:105590004D962981FC0120838B819C812A81FC010D
:1055A000218F07C08B819C81FC0186899789FC0132
:1055B000808100000F900F900F900F90DF91CF919E
:1055C00008951F920F920FB60F9211240BB60F92EF
:1055D0002F933F934F935F936F937F938F939F93FB
:1055E000AF93BF93EF93FF93CF93DF93CDB7DEB726
:1055F00082ED92E090DF0000DF91CF91FF91EF917B
:10560000BF91AF919F918F917F916F915F914F91DA
:105610003F912F910F900BBE0F900FBE0F901F90D8
:1056200018951F920F920FB60F9211240BB60F927E
:105630002F933F934F935F936F937F938F939F939A
:10564000AF93BF93EF93FF93CF93DF93CDB7DEB7C5
:1056500082ED92E081DB0000DF91CF91FF91EF912D
:10566000BF91AF919F918F917F916F915F914F917A
:105670003F912F910F900BBE0F900FBE0F901F9078
:105680001895CF92DF92EF92FF920F931F93CF93D3
:10569000DF9300D01F92CDB7DEB79A8389837C83D6
:1056A0006B8389819A810197C9F48B819C810196D2
:1056B000A9F40F2EF6ECCF2ED12CF02D0F2EF2ECFC
:1056C000EF2EF12CF02D01EC10E020EC30E044EC5A
:1056D00050E065EC70E082ED92E0ABDE00000F90F0
:1056E0000F900F900F90DF91CF911F910F91FF902E
:1056F000EF90DF90CF900895CF93DF93CDB7DEB7D3
:105700006FEF7FEF81E090E0BCDFDF91CF910895F4
:105710001F920F920FB60F9211240BB60F922F9378
:105720003F934F935F936F937F938F939F93AF9329
:10573000BF93EF93FF93CF93DF93CDB7DEB78FE6A1
:1057400093E0E9DE0000DF91CF91FF91EF91BF91EF
:10575000AF919F918F917F916F915F914F913F9109
:105760002F910F900BBE0F900FBE0F901F901895AA
:105770001F920F920FB60F9211240BB60F922F9318
:105780003F934F935F936F937F938F939F93AF93C9
:10579000BF93EF93FF93CF93DF93CDB7DEB78FE641
:1057A00093E0DADA0000DF91CF91FF91EF91BF91A2
:1057B000AF919F918F917F916F915F914F913F91A9
:1057C0002F910F900BBE0F900FBE0F901F9018954A
:1057D000CF92DF92EF92FF920F931F93CF93DF93BD
:1057E00000D01F92CDB7DEB79A8389837C836B8309
:1057F00089819A810197C9F48B819C810196A9F4D2
:105800000F2EFEECCF2ED12CF02D0F2EFAECEF2E1A
:10581000F12CF02D09EC10E028EC30E04CEC50E0DD
:105820006DEC70E08FE693E004DE00000F900F90C7
:105830000F900F90DF91CF911F910F91FF90EF90FC
:10584000DF90CF900895CF93DF93CDB7DEB76FEFA2
:105850007FEF81E090E0BCDFDF91CF9108951F9250
:105860000F920FB60F9211240BB60F922F933F9306
:105870004F935F936F937F938F939F93AF93BF9358
:10588000EF93FF93CF93DF93CDB7DEB78CE094E037
:1058900042DE0000DF91CF91FF91EF91BF91AF9178
:1058A0009F918F917F916F915F914F913F912F9138
:1058B0000F900BBE0F900FBE0F901F9018951F9268
:1058C0000F920FB60F9211240BB60F922F933F93A6
:1058D0004F935F936F937F938F939F93AF93BF93F8
:1058E000EF93FF93CF93DF93CDB7DEB78CE094E0D7
:1058F00033DA0000DF91CF91FF91EF91BF91AF912B
:105900009F918F917F916F915F914F913F912F91D7
:105910000F900BBE0F900FBE0F901F901895CF9257
:10592000DF92EF92FF920F931F93CF93DF9300D0FC
:105930001F92CDB7DEB79A8389837C836B8389817D
:105940009A810197C9F48B819C810196A9F40F2E4D
:10595000F6EDCF2ED12CF02D0F2EF2EDEF2EF12CF7
:10596000F02D01ED10E020ED30E044ED50E065ED6C
:1059700070E08CE094E05DDD00000F900F900F90E0
:105980000F90DF91CF911F910F91FF90EF90DF90DB
:10599000CF900895CF93DF93CDB7DEB76FEF7FEF52
:1059A00081E090E0BCDFDF91CF9108951F920F92CC
:1059B0000FB60F9211240BB60F922F933F934F9374
:1059C0005F936F937F938F939F93AF93BF93EF9367
:1059D000FF93CF93DF93CDB7DEB789EA94E09BDDE9
:1059E0000000DF91CF91FF91EF91BF91AF919F9117
:1059F0008F917F916F915F914F913F912F910F9078
:105A00000BBE0F900FBE0F901F9018951F920F9214
:105A10000FB60F9211240BB60F922F933F934F9313
:105A20005F936F937F938F939F93AF93BF93EF9306
:105A3000FF93CF93DF93CDB7DEB789EA94E08CD99B
:105A40000000DF91CF91FF91EF91BF91AF919F91B6
:105A50008F917F916F915F914F913F912F910F9017
:105A60000BBE0F900FBE0F901F901895CF92DF9234
:105A7000EF92FF920F931F93CF93DF9300D01F926B
:105A8000CDB7DEB79A8389837C836B8389819A81C2
:105A90000197D9F48B819C810196B9F40F2EF6E31E
:105AA000CF2EDD24D394F02D0F2EF2E3EF2EFF2422
:105AB000F394F02D01E311E020E331E044E351E001
:105AC00065E371E089EA94E0B4DC00000F900F9088
:105AD0000F900F90DF91CF911F910F91FF90EF905A
